:1000000098C00000C7C00000C5C00000F5C00000D7
:10001000C1C00000BFC0000016C10000BBC000008E
:10002000B9C000000C943A17B5C000000C948C17AE
:10003000B1C00000AFC00000ADC00000C0C10000F2
:10004000A9C00000A7C00000A5C00000A3C0000018
:10005000A1C000009FC000009DC000001BC10000A7
:1000600099C000000C94431D0C94721D93C00000B5
:1000700091C000008FC000008DC000008BC0000048
:1000800089C0000087C0000085C0000083C0000058
:100090000C94B91D0C94E81D7DC000007BC00000CD
:1000A00079C0000077C0000075C0000073C0000078
:1000B00071C000006FC000006DC000006BC0000088
:1000C00069C0000067C0000065C000000C94161EE7
:1000D0000C94261E5FC000000C94861E0C94B51E66
:1000E00059C00000084AD73B3BCE016E84BCBFFD1F
:1000F000C12F3D6C74319ABD56833DDA3D00C77FF8
:1001000011BED9E4BB4C3E916BAAAABE0000008090
:100110003F05A84CCDB2D44EB93836A9020C50B91F
:10012000918688083CA6AAAA2ABE000000803F004B
:10013000481811241FBECFEFD1E2DEBFCDBF00E0D3
:100140000CBF12E0A0E0B2E0E6E6F5E400E00BBF91
:1001500002C007900D92A836B107D9F725E0A8E6AE
:10016000B2E001C01D92A336B207E1F710E0C9E981
:10017000D0E000E006C021970109802FFE010E9417
:10018000A922C839D10780E00807A9F70E94FD1706
:100190000C94B12235CF789480E3809369008CE091
:1001A00080936A008DB384628DBB0895789485B581
:1001B000856085BD81E080936E000895CF93DF93C5
:1001C000EC0168817981072E000C880B990B0E9445
:1001D00095202EEF34E346E353E40E94AE2120E065
:1001E00030E048E453E40E94FA1F6C837D838E83E1
:1001F0009F83DF91CF9108951F920F920FB60F92B8
:1002000011240BB60F928F939F93EF93FF93009B54
:1002100008C0E0E7F2E080819181019691838083BC
:1002200007C0E0E7F2E080819181019791838083AC
:10023000FF91EF919F918F910F900BBE0F900FBE8A
:100240000F901F9018951F920F920FB60F921124C6
:100250000BB60F928F939F93EF93FF93059B08C06C
:10026000E8E6F2E08081918101969183808307C066
:10027000E8E6F2E080819181019791838083FF918C
:10028000EF919F918F910F900BBE0F900FBE0F902B
:100290001F9018951F920F920FB60F9211248F93F3
:1002A00081E0809302028093040280930302809392
:1002B0000102809300028F910F900FBE0F901F904C
:1002C00018950E94A81C8CE30E94AE1C80E00E943E
:1002D0001B1D80E70E941B1D0E94D71C8CE30E94FF
:1002E000AE1C81E00E941B1D80EA0E941B1D0E9423
:1002F000D71C8CE30E94AE1C82E00E941B1D80E094
:100300000E941B1D0C94D71C08958CE30E94AE1C08
:1003100083E00E941B1D0E94D71C8DE30E94D51C08
:100320000E942D1D10926604809367040E942D1D6B
:100330002091660430916704282B30936704209342
:1003400066040E942D1D10926204809363040E9433
:100350002D1D2091620430916304282B3093630497
:10036000209362040E942D1D109264048093650402
:100370000E94381D2091640430916504282B30932D
:100380006504209364040C94D71C08952FB7F89447
:1003900060915E0470915F048091600490916104AB
:1003A0002FBF0895E1EBF0E0808184608083E0E777
:1003B000F0E08081816080831092B20008951F92E6
:1003C0000F920FB60F9211248F939F93AF93BF9309
:1003D00080915E0490915F04A0916004B0916104EB
:1003E0000196A11DB11D80935E0490935F04A093BC
:1003F0006004B093610480915A0490915B04A091D1
:100400005C04B0915D040396A11DB11D80935A0454
:1004100090935B04A0935C04B0935D0480915A04B4
:1004200090915B04A0915C04B0915D048D379105BF
:10043000A105B10538F180915A0490915B04A09117
:100440005C04B0915D048D579109A109B1098093B5
:100450005A0490935B04A0935C04B0935D04809174
:100460005E0490915F04A0916004B09161040196D4
:10047000A11DB11D80935E0490935F04A09360045E
:10048000B0936104BF91AF919F918F910F900FBE78
:100490000F901F90189515DF81EE93E00E94D618FB
:1004A00062E381EE93E00E94881A7CDF6FDF609345
:1004B000C5037093C6038093C7039093C803089540
:1004C0004F925F926F927F928F929F92AF92BF9264
:1004D000CF92DF92EF92FF920F931F93CF93DF9310
:1004E000CDB7DEB764970FB6F894DEBF0FBECDBFB1
:1004F00069837A838B839C8329013A01E98AFA8A8A
:100500000B8B1C8B0E94F71F6D877E878F87988BC4
:1005100069817A818B819C810E94112269837A830F
:100520008B839C83C301B2010E94F71F6D837E837E
:100530008F839887C301B2010E94112269877A874D
:100540008B879C87A60195016D817E818F8198851F
:100550000E94AE212B013C0128A539A54AA55BA527
:1005600069857A858B859C850E94AE219B01AC01B3
:10057000C301B2010E942C1F2B013C01A601950171
:1005800069817A818B819C810E94AE2129853A857F
:100590004B855C850E94AE214B015C01A80197014F
:1005A0006D857E858F8598890E94AE219B01AC0167
:1005B000C501B4010E942C1F4B015C0128A539A57F
:1005C0004AA55BA569817A818B819C810E94AE21BD
:1005D0002D813E814F8158850E94AE219B01AC0147
:1005E000C501B4010E942D1F9058A30192010E94E1
:1005F000A01F21EE3EE245E652E40E94AE210E9499
:1006000062209B01772314F428593E4FC901649658
:100610000FB6F894DEBF0FBECDBFDF91CF911F9113
:100620000F91FF90EF90DF90CF90BF90AF909F9091
:100630008F907F906F905F904F9008954F925F9250
:100640006F927F92AF92BF92CF92DF92EF92FF9222
:100650000F931F93CF93DF93CDB7DEB728970FB6D5
:10066000F894DEBF0FBECDBF609164047091650445
:10067000072E000C880B990B0E9495205B016C01E2
:100680006091660470916704072E000C880B990B2B
:100690000E94952069837A838B839C8325E33AEFBC
:1006A0004EE85CE36091CD037091CE038091CF035F
:1006B0009091D0030E94AE216D837E838F839887B3
:1006C00025E33AEF4EE85CE36091D1037091D203E9
:1006D0008091D3039091D4030E94AE212B013C0161
:1006E0006091620470916304072E000C880B990BD3
:1006F0000E9495209F938F937F936F93E980FA8058
:100700000B811C812D813E814F815885C301B2012F
:10071000D7DE0F900F900F900F90BC0180E090E01B
:100720000E9493202B013C012AE0298360E070E0C5
:10073000CB01A30192010E942D1F29812150298301
:100740002111F7CF20E030E040E251E40E94FA1F8F
:1007500028960FB6F894DEBF0FBECDBFDF91CF91C4
:100760001F910F91FF90EF90DF90CF90BF90AF90CF
:100770007F906F905F904F900895CF92DF92EF92AD
:10078000FF920F931F93CF93DF93CDB7DEB72C97D4
:100790000FB6F894DEBF0FBECDBF61EE73E0CE01A1
:1007A00001960E9477198CE0FE013196A9EBB3E027
:1007B00001900D928A95E1F781EE93E00E94131C5F
:1007C00009EB13E0F801C084D184E284F3846081F2
:1007D000718182819381A70196010E94A01F21EE61
:1007E0003EE245E652E40E94AE216093DD03709341
:1007F000DE038093DF039093E003F8016481758149
:1008000086819781A70196010E94A01F21EE3EE2FA
:1008100045E652E40E94AE216093D9037093DA0357
:100820008093DB039093DC0370DDB0DD0091C503A2
:100830001091C6032091C7033091C8036017710758
:100840008207930709F4F0C0A1DD6093C50370939C
:10085000C6038093C7039093C803809154028823F2
:1008600091F18091DD039091DE03A091DF03B091BF
:10087000E0038093D1039093D203A093D303B0936A
:10088000D4038091D9039091DA03A091DB03B09156
:10089000DC038093CD039093CE03A093CF03B0935A
:1008A000D0038091D5039091D603A091D703B09146
:1008B000D8038093C9039093CA03A093CB03B0934A
:1008C000CC031092540281EE93E00E946C1C2FE640
:1008D00032E143E85AE30E94AE212091D1033091E6
:1008E000D2034091D3035091D4030E942D1F2BE7D4
:1008F00034E14EE65FE30E94AE216B017C0129E208
:100900003CE54FE85DE36091DD037091DE0380918B
:10091000DF039091E0030E94AE219B01AC01C7016F
:10092000B6010E942D1F6093D1037093D203809370
:10093000D3039093D40381EE93E00E94741C2FE6BE
:1009400032E143E85AE30E94AE212091CD03309179
:10095000CE034091CF035091D0030E942D1F2BE76F
:1009600034E14EE65FE30E94AE216B017C0129E297
:100970003CE54FE85DE36091D9037091DA03809123
:10098000DB039091DC030E94AE219B01AC01C70107
:10099000B6010E942D1F6093CD037093CE03809308
:1009A000CF039093D0034ADE6093D5037093D603B0
:1009B0008093D7039093D80381EE93E00E947C1C30
:1009C0002FE632E143E85AE30E94AE212091C903A9
:1009D0003091CA034091CB035091CC030E942D1F4C
:1009E0002DEC3CEC4CEC5DE30E94AE216B017C01F4
:1009F00026E636E646E65FE36091D5037091D603BE
:100A00008091D7039091D8030E94AE219B01AC0145
:100A1000C701B6010E942D1F6093C9037093CA03DA
:100A20008093CB039093CC036091C9037091CA0368
:100A30008091CB039091CC030E946720CB012C9630
:100A40000FB6F894DEBF0FBECDBFDF91CF911F91DF
:100A50000F91FF90EF90DF90CF9008950F931F9329
:100A6000CF93DF93E7E1F3E088E290E0928B818B14
:100A7000148A138A80E090E0A0E8B0E4858B968B1E
:100A8000A78BB08F8AE097EDA3EABCE3818F928FAA
:100A9000A38FB48F80E090E0A0E2B1E4858F968FC1
:100AA000A78FB0A3E6EFF2E08AE999E9A9E1BEE3F6
:100AB000858B968BA78BB08F118E128E138E148E12
:100AC00046E656E666E67FE3458F568F678F70A34E
:100AD000E5EDF2E0858B968BA78BB08F118E128E91
:100AE000138E148E80E090E0A0E8BFE3858F968F90
:100AF000A78FB0A3A0EBB2E08DE290E01F969C938D
:100B00008E931E97EFE8F2E0978786870AE919E946
:100B100029E93FE355960D931D932D933C935897E8
:100B200059961D921D921D921C925C9740E050E0D8
:100B300060E871E45D964D935D936D937C9390971F
:100B4000058B168B278B308F118E128E138E148E81
:100B5000458F568F678F70A39EDC18DC6093B503BA
:100B60007093B6038093B7039093B803C7E1D3E0C3
:100B70000DDC0091B5031091B6032091B7033091BD
:100B8000B803DC01CB01801B910BA20BB30B843F9C
:100B90009140A105B10548F4F0DD90939A0380934C
:100BA0009903188A9F878E87E3CF0E94841C88E66A
:100BB0000E94171FDF91CF911F910F910895E8E0D8
:100BC000F1E0908181E08927808310929703109251
:100BD000960310929503109294030895CF93DF9398
:100BE0008FE70E94711ECDEAD3E088810E94711EBA
:100BF00089810E94711E8A810E94711E8B810E94D0
:100C0000711EDF91CF9108952F923F924F925F9284
:100C10006F927F928F929F92AF92BF92CF92DF920C
:100C2000EF92FF920F931F93CF93DF9300D01F9209
:100C3000CDB7DEB781E08093210280910202882344
:100C400009F419C180915602882309F418C195DD71
:100C50008C01E7E1F3E09183808386859785801B93
:100C6000910B853B91053CF08856914090931A0377
:100C7000809319030FC08C342FEF92072CF09093C0
:100C80001A038093190306C088599E4F90931A0344
:100C9000809319032090190330901A03B101032C9B
:100CA000000C880B990B0E9495204B015C01209150
:100CB00030033091310340913203509133030E944D
:100CC000AE212091210330912203409123035091C2
:100CD00024030E942D1F6B017C01609321037093FC
:100CE000220380932303909324036091280370913F
:100CF0002903072E000C880B990B0E94952069830D
:100D00007A838B839C832DEC3CEC4CEC5DE30E945E
:100D1000AE212B013C01C701B6010E9462209B015C
:100D2000772324F422273327261B370BB901330FEF
:100D3000880B990B0E949520A30192010E94A32188
:100D4000181624F520E030E0A901C701B6010E9481
:100D5000A32118164CF44092210350922203609272
:100D600023037092240312C02DEC3CEC4CEC5DEBA1
:100D700069817A818B819C810E94AE2160932103DD
:100D8000709322038093230390932403C10199233A
:100D900024F488279927821993090297E4F1209176
:100DA0002C0330912D0340912E0350912F03C50148
:100DB000B4010E94AE216B017C0180911B039091D4
:100DC0001C03B801681B790B072E000C880B990BCC
:100DD0000E949520209134033091350340913603D1
:100DE000509137030E94AE219B01AC01C701B601AF
:100DF0000E942C1F20912103309122034091230354
:100E0000509124030E942D1F0E94622070931E03A4
:100E100060931D0308C0E7E1F3E012861386148691
:100E2000158617821682E7E1F3E080819181958330
:100E300084838681978121893289AC01992324F4A6
:100E400044275527481B590B2417350754F42817F6
:100E500039071CF031952195310930931E032093F9
:100E60001D0380911D0390911E039093A403809312
:100E7000A3031092020280915602811104C01092C5
:100E8000A4031092A3030F900F900F900F90DF9187
:100E9000CF911F910F91FF90EF90DF90CF90BF9077
:100EA000AF909F908F907F906F905F904F903F900A
:100EB0002F9008952F923F924F925F926F927F9260
:100EC0008F929F92AF92BF92CF92DF92EF92FF925A
:100ED0000F931F93CF93DF9300D01F92CDB7DEB750
:100EE00080912102882309F457C00F2EF5EACF2EF6
:100EF000F3E0DF2EF02D0F2EF3E24F2EF2E05F2E07
:100F0000F02D0F2EFDEA2F2EF3E03F2EF02D0F2EA9
:100F1000F5EA6F2EF3E07F2EF02DDA82C9820FE919
:100F200013E072011B821C82D8016D917D918D01AD
:100F3000F70181909190A190B1907F01072E000C54
:100F4000880B990B0E949520A50194010E94AE2167
:100F50004B015C012B813C81B901330F880B990B4C
:100F60000E9495209B01AC01C501B4010E942D1F78
:100F70000E9462207C836B8306151705A9F6A98160
:100F8000BA816D937C93F2E0CF0ED11C2CE0420E1F
:100F9000511CC214D30409F6EDEAF3E0A5EAB3E06C
:100FA0002D913C9147E1429FC001439F900D112438
:100FB00029EF30E0B9010E94822260836091A7038B
:100FC0007091A803469FC001479F900D1124B9015D
:100FD0000E94822261836091A9037091AA03469FB7
:100FE000C001479F900D1124B9010E9482226283A3
:100FF0006091AB037091AC03469FC001479F900D79
:101000001124B9010E9482226383E8DD0F900F90C2
:101010000F900F90DF91CF911F910F91FF90EF9064
:10102000DF90CF90BF90AF909F908F907F906F9008
:101030005F904F903F902F9008952F923F924F9244
:101040005F926F927F928F929F92AF92BF92CF9258
:10105000DF92EF92FF920F931F93CF93DF931C01C8
:101060008B017A0181E08093210280E792E0A6D88B
:101070000E946220AB01772324F444275527461BA6
:10108000570BEA0150939E0340939D033092050352
:101090002092040320910102222309F455C11092E9
:1010A0009503109294035093F7024093F602109226
:1010B0000102483E83E058070CF4EAC0241A350ABE
:1010C0000F2EF6EFCF2EF2E0DF2EF02DF601338259
:1010D0002282B101032C000C880B990B0E949520F1
:1010E0002B013C01F601218D328D438D548D0E94E0
:1010F000AE21F60122853385448555850E942D1F3A
:101100004B015C01F601628773878487958780892C
:10111000882319F0D583C483108AC501B4010E94C5
:1011200062209B01772324F422273327261B370BC9
:101130002B3031055CF120E030E0A901C501B4019C
:101140000E94A32118166CF480E090E0A0E2B1E4C4
:101150008093000390930103A0930203B0930303D1
:1011600015C020E030E0A901C501B4010E94F31FC1
:10117000882364F480E090E0A0E2B1EC8093000367
:1011800090930103A0930203B0930303121413047A
:10119000BCF50F2EF6EFCF2EF2E0DF2EF02DF6018C
:1011A000258936894789508DC301B2010E94AE213D
:1011B000F60122853385448555850E942D1F4B01FC
:1011C0005C01F60184819581BE01681B790B072EB5
:1011D000000C880B990B0E949520F601258D368D09
:1011E000478D50A10E94AE219B01AC01C501B40105
:1011F0000E942C1F0E946220F6017783668304C040
:101200001092FD021092FC02E6EFF2E0D583C48357
:10121000868197819C01992324F422273327281B58
:10122000390BE216F30678F4181619062CF4F0922E
:10123000FD02E092FC0207C0F194E194F108F09203
:10124000FD02E092FC028091FC029091FD02439627
:101250008797A8F480919703882339F084E190E080
:101260009093FD028093FC020AC08091960388232C
:1012700031F08CEE9FEF9093FD028093FC02809101
:10128000FC029091FD029093A00380939F0335C0D0
:10129000809122028823C9F0BA01550F880B990B5F
:1012A0000E94952029E23CE54FE05EE30E94AE21DA
:1012B00020E030E040E752E40E942D1F0E946220AF
:1012C0007093A00360939F0318C0BA01550F880B59
:1012D000990B0E9495202FE832EC45E75DE30E94D0
:1012E000AE2120E030E040E752E40E942D1F0E9432
:1012F00062207093A00360939F030230110551F4A4
:1013000081E08093970310929603109294031092B9
:1013100095031AC003301105B9F4EFE9F3E08081B9
:10132000918199231CF491958195910991958195CD
:101330009109918380831092970381E080939603B3
:10134000109295031092940380912202882349F011
:10135000EFE9F3E084EE9FEF93838283158214829A
:1013600005C01092A2031092A1034EDCDF91CF9131
:101370001F910F91FF90EF90DF90CF90BF90AF90B3
:101380009F908F907F906F905F904F903F902F90A5
:1013900008950E946D1E853638F090910A029035AE
:1013A00061F09A30D9F504C090910A029A3081F523
:1013B000811131C01092D4022EC0863479F410927B
:1013C000D3029091D402911120C01AC08AE0809378
:1013D0000A0281E08093D40290E020C0853640F07C
:1013E00080E580930A0281E08093D3029AE516C0DB
:1013F0009091D402911109C09091D302911105C02E
:101400009AE0980F90930A0209C09AE0980F06C0DC
:10141000903571F7D2CF853658F3D8CF892F0895FC
:101420004F925F926F927F92AF92BF92CF92DF9274
:10143000EF92FF920F931F93CF93DF930F2EF7E559
:10144000EF2EF2E0FF2EF02D0AE713E0C0E0D0E02F
:10145000CC24C394D12C86B190E00C2E02C095957B
:1014600087950A94E2F780FF10C0F801D182C0820C
:1014700020919303C6010C2E02C0880F991F0A9475
:10148000E2F7822B8093930303C0F801118210824C
:10149000F701819191917F01F801A190B1908F01A5
:1014A0008A9DB0018B9D700D9A9D700D1124072EA1
:1014B000000C880B990B0E94952020918E0330918F
:1014C0008F0340919003509191030E942D1F2B0197
:1014D0003C0160938E0370938F03809390039093ED
:1014E0009103B501BB0C880B990B0E9495202091AC
:1014F0008A0330918B0340918C0350918D030E949D
:101500002D1F60938A0370938B0380938C039093B9
:101510008D032196C830D10509F09DCF9B01AC0108
:10152000C301B2010E94FA1F0E94672060939203D8
:1015300010928E0310928F031092900310929103D9
:1015400010928A0310928B0310928C0310928D03D9
:10155000809109028A3029F46A3081F51092D20212
:101560002DC08035F1F4603581F41092D102809164
:10157000D2028823F1F01FC0109292038AE0809378
:10158000090281E08093D20216C061110AC08AE587
:101590008093920380E58093090281E08093D102D9
:1015A0000AC08091D202811106C08091D1028111BE
:1015B00002C0609309028091920303C06111F1CFD0
:1015C000DBCFDF91CF911F910F91FF90EF90DF90D4
:1015D000CF90BF90AF907F906F905F904F900895A5
:1015E0004F925F926F927F928F929F92AF92BF9233
:1015F000EF92FF920F931F93CF93DF938091C002DE
:10160000882359F0C6DE882341F0C3DEE0EBF2E028
:1016100090E095838483108AC5C08091040288235A
:1016200009F4C0C080915502882309F4BFC0B1DE1F
:10163000E82EF12CC0EBD2E0F982E8820E851F85FE
:101640000E191F091B830A83B801012E000C880B99
:10165000990B0E9495204B015C01298D3A8D4B8D91
:101660005C8D0E94AE212A853B854C855D850E945C
:101670002D1F2B013C016A877B878C879D870E94E9
:1016800062209B01772324F422273327261B370B64
:10169000263031055CF120E030E0A901C301B20140
:1016A0000E94A32118166CF480E090E0A0EAB0E458
:1016B0008093BA029093BB02A093BC02B093BD0288
:1016C00015C020E030E0A901C301B2010E94F31F60
:1016D000882364F480E090E0A0EAB0EC8093BA0242
:1016E0009093BB02A093BC02B093BD02012B49F4BE
:1016F000E0EBF2E0128613861486158617821682B6
:101700002DC0C0EBD2E02D893E894F89588DC5018F
:10171000B4010E94AE212A853B854C855D850E94DF
:101720002D1F4B015C018C819D81B701681B790BDA
:10173000072E000C880B990B0E9495202D8D3E8D55
:101740004F8D58A10E94AE219B01AC01C501B4018F
:101750000E942C1F0E9462207F836E83E0EBF2E0E8
:101760008081918195838483868197819C019923CF
:1017700024F422273327281B390B2135310584F027
:10178000181619063CF480E590E09093B702809318
:10179000B60206C080EB9FEF9093B7028093B6022B
:1017A0001092030280915502811104C01092B70279
:1017B0001092B602DF91CF911F910F91FF90EF90A1
:1017C000BF90AF909F908F907F906F905F904F9061
:1017D00008954F925F926F927F928F929F92AF92F5
:1017E000BF92EF92FF920F931F93CF93DF9380915D
:1017F0009F02882351F014DE882339F011DEEFE8D0
:10180000F2E090E095838483108A8091040288231B
:1018100009F4C0C080915502882309F4BFC000DEDE
:10182000E82EF12CCFE8D2E0F982E8820E851F8500
:101830000E191F091B830A83B801012E000C880BA7
:10184000990B0E9495204B015C01298D3A8D4B8D9F
:101850005C8D0E94AE212A853B854C855D850E946A
:101860002D1F2B013C016A877B878C879D870E94F7
:1018700062209B01772324F422273327261B370B72
:10188000263031055CF120E030E0A901C301B2014E
:101890000E94A32118166CF480E090E0A0EAB0E466
:1018A0008093990290939A02A0939B02B0939C021A
:1018B00015C020E030E0A901C301B2010E94F31F6E
:1018C000882364F480E090E0A0EAB0EC8093990271
:1018D00090939A02A0939B02B0939C02012B49F42F
:1018E000EFE8F2E0128613861486158617821682B8
:1018F0002DC0CFE8D2E02D893E894F89588DC50192
:10190000B4010E94AE212A853B854C855D850E94ED
:101910002D1F4B015C018C819D81B701681B790BE8
:10192000072E000C880B990B0E9495202D8D3E8D63
:101930004F8D58A10E94AE219B01AC01C501B4019D
:101940000E942C1F0E9462207F836E83EFE8F2E0EA
:101950008081918195838483868197819C019923DD
:1019600024F422273327281B390B2135310584F035
:10197000181619063CF480E590E090939602809347
:10198000950206C080EB9FEF90939602809395029C
:101990001092040280915502811104C010929602A7
:1019A00010929502DF91CF911F910F91FF90EF90D0
:1019B000BF90AF909F908F907F906F905F904F906F
:1019C000089580910C02811108C080910B02823031
:1019D00071F0833071F4A1E013C0813061F4809123
:1019E0000B02823051F0833051F4A3E009C0A0E033
:1019F00007C0A4E005C0A4E003C0A2E001C0A4E0C9
:101A0000B0E0AA0FBB1FAA0FBB1FA35FBD4FE5EA43
:101A1000F3E06DEA73E04D91208131814203C00112
:101A2000439F900D112481939193E617F70799F73F
:101A300008958F929F92AF92BF92CF92DF92EF92D2
:101A4000FF92CF93DF93D62FC42F81E080932102A2
:101A500080E792E00E94DE006B017C016C2F70E059
:101A600080E090E00E9495204B015C01C701B60127
:101A70000E9462209B01772324F422273327261B10
:101A8000370BB901330F880B990B0E9495202CE47A
:101A900037E349E85DE30E94AE219B01AC01C5013B
:101AA000B4010E942C1F0E9462207093A0036093D7
:101AB0009F03D23051F481E08093970310929603F4
:101AC000109294031092950319C0D330B9F49B017E
:101AD000772324F422273327261B370B31952195B2
:101AE00031093093A00320939F031092970381E064
:101AF000809396031092950310929403EFE9F3E01C
:101B00001382128215821482DF91CF91FF90EF90A1
:101B1000DF90CF90BF90AF909F908F9008950F93DC
:101B20001F93109295038091000183FF59C0639B1E
:101B30005AC056C08091000183FF6FC088C0809159
:101B4000000183FD87C0639949C08091000183FF34
:101B500094C080E099C0E5EAF3E01182108213821C
:101B60001282158214821782168280915302882372
:101B700061F00E94C6016093B1037093B203809339
:101B8000B3039093B403109253020E94C6010091D4
:101B9000B1031091B2032091B3033091B403AB01B0
:101BA000BC01401B510B620B730B81E0493C51059A
:101BB0006105710508F068C080E066C0E5EAF3E001
:101BC0008FE090E0918380831382128215821482C9
:101BD00081EF9FEF9783868380E056C080E054C0FA
:101BE0006399A8CF34C010922102E5EAF3E08EE1B8
:101BF00090E091838083938382831582148217827D
:101C000016821092B1031092B2031092B303109295
:101C1000B40381E08093530296CF10922102E5EA4B
:101C2000F3E0118210821382128282EE9FEF95837D
:101C30008483978386831092B1031092B20310922B
:101C4000B3031092B40381E0809353027CCF639975
:101C500076CF79CF11E0109321024CE363E088E561
:101C600092E0E7DE1092B1031092B2031092B30338
:101C70001092B4031093530266CF10922102809108
:101C8000980381119BCF67CF1F910F910895CF9338
:101C9000DF93EC0110922102A3DC9BDD80910B020B
:101CA0008230F1F48091B6029091B702E5EAF3E058
:101CB0009C012C0F3D1F318320839E01281B390B73
:101CC0003383228380919502909196029E01280F82
:101CD000391F35832483C81BD90BD783C6831CC007
:101CE0008091B6029091B702E5EAF3E09E01281BCD
:101CF000390B318320838C0F9D1F938382838091C6
:101D00009502909196029E01281B390B35832483FE
:101D1000C80FD91FD783C68354DEDF91CF910895B2
:101D20002F923F924F925F926F927F928F929F92EB
:101D3000AF92BF92CF92DF92EF92FF920F931F93D9
:101D4000CF93DF931C018B017A01E0EBF2E08AE98B
:101D500099E9A9E9BFE3858B968BA78BB08F118E8C
:101D6000128E138E148E80E090E0A0E8B1E4858F8F
:101D7000968FA78FB0A388E692E00E94DE000E94B3
:101D800062209B01772324F422273327261B370B5D
:101D9000E90130939C0320939B033092E40220924C
:101DA000E30280910002882309F40AC11092000224
:101DB000283582E038070CF4ADC00F2EF5EDCF2E9C
:101DC000F2E0DF2EF02DF60131832083221A330A50
:101DD00033822282B101032C000C880B990B0E94E4
:101DE00095202B013C01F601218D328D438D548DC0
:101DF0000E94AE21F60122853385448555850E94D7
:101E00002D1F4B015C01F6016287738784879587DC
:101E10008089882319F0D583C483108AC501B40151
:101E20000E9462209B01772324F422273327261B5C
:101E3000370B2B3031055CF120E030E0A901C50102
:101E4000B4010E94A32118166CF480E090E0A0E297
:101E5000B1E48093DF029093E002A093E102B0939B
:101E6000E20215C020E030E0A901C501B4010E94E2
:101E7000F31F882364F480E090E0A0E2B1EC80934B
:101E8000DF029093E002A093E102B093E202121409
:101E90001304BCF50F2EF5EDCF2EF2E0DF2EF02D62
:101EA000F601258936894789508DC301B2010E9408
:101EB000AE21F60122853385448555850E942D1F6C
:101EC0004B015C01F60184819581BE01681B790B91
:101ED000072E000C880B990B0E949520F601258D8A
:101EE000368D478D50A10E94AE219B01AC01C501EA
:101EF000B4010E942C1F0E946220F6017783668342
:101F000004C01092DC021092DB02D093DA02C0937C
:101F1000D90218C0B901330F880B990B0E94952084
:101F20002AE939E949E15EE30E94AE2120E030E090
:101F300040E752E40E942D1F0E9462207093DC0251
:101F40006093DB028091DB029091DC0299231CF408
:101F50009195819591098E159F0520F0F092DC02F4
:101F6000E092DB028091DB029091DC02439687973E
:101F700030F484E190E09093DC028093DB0281E016
:101F800080930C020230110561F480939503109246
:101F90009403109297031092960382E080930B02B1
:101FA0000FC00330110561F481E080939403109217
:101FB0009503109297031092960383E080930B028F
:101FC0008091DB029091DC0262DEDF91CF911F9164
:101FD0000F91FF90EF90DF90CF90BF90AF909F90C8
:101FE0008F907F906F905F904F903F902F900895CB
:101FF0008F929F92AF92BF92CF92DF92EF92FF9219
:102000000F931F93CF93DF93D62FC42FE0EBF2E013
:102010000AE919E929E13FE3058B168B278B308FFD
:102020004AE057ED63EA7CE3418F528F638F748FF0
:1020300080E090E0A0E2B1E4858F968FA78FB0A3F7
:10204000EFE8F2E0058B168B278B308F418F528F94
:10205000638F748F858F968FA78FB0A381E0809355
:102060000C02D23021F482E080930B0205C0D33001
:1020700019F483E080930B0288E692E00E94DE0070
:102080004B015C016C2F70E080E090E00E94952095
:102090006B017C01C501B4010E9462209B01772382
:1020A00024F422273327261B370BB901330F880B63
:1020B000990B0E9495202AE037ED43E25DE30E94F0
:1020C000AE219B01AC01C701B6010E942C1F0E94EA
:1020D0006220CB01DCDDDF91CF911F910F91FF904A
:1020E000EF90DF90CF90BF90AF909F908F9008952A
:1020F00081E080930C0283E080930B02E0EBF2E03E
:1021000046E656E666EE7FE3458B568B678B708F0F
:10211000118E128E138E148E80E090E0A0E8B1E450
:10212000858F968FA78FB0A3EFE8F2E0458B568B93
:10213000678B708F118E128E138E148E858F968FF3
:10214000A78FB0A380E090E0A2CD0895CF938091B7
:102150008E028111B1C08091090186FD69C0809114
:10216000830290918402059709F062C054C0809167
:102170008302909184020697F9F4809108028111FC
:102180005CC01AC08091830290918402059731F05F
:102190008091830290918402069731F481E08093CC
:1021A0008C0287E70E94171F80918E02882321F0FE
:1021B00080918D02811185C080910702882399F05A
:1021C0008091090186FD0FC08091090182FF0BC03B
:1021D00080910802811107C080918302909184024E
:1021E000069709F43FC08091090182FD5EC080918D
:1021F000830290918402069709F057C080910802EB
:10220000811153C035C010928D0281E08093890204
:102210001092880256C08FE60E94171F81E08093BB
:102220008E0280938A0210927F021092800244C034
:102230008091090186FF9BCFBFCF8FE60E94171FB9
:1022400081E080938E0210928A02809389028093AB
:102250007E0280937F028093800210927C02109213
:102260007D022AC08BE60E94171F10920702BBCF87
:10227000C1E0C0937C02C0937D0210927A0210925A
:102280007B028AE60E94171FC0938D02C0938C02C6
:10229000C0938E02C093880287E090E0909306027C
:1022A00080930502109289020CC080918302909164
:1022B0008402069731F4A7CF8091090186FD62CF91
:1022C00077CFCF91089580918302909184020597F2
:1022D00039F08091830290918402069709F04BC0F7
:1022E0008091050290910602089709F044C004C449
:1022F00080917E02811109C08091090184FF01C48F
:1023000080916A048111FDC305C480917D028823F8
:1023100081F180917C02882361F18091090184FF21
:1023200004C080916B04882321F080916C04882381
:1023300059F086E090E0909384028093830210929B
:10234000080204DFD5DE17C08091090184FDF0C3C7
:1023500081E08093080210927902F8DEC9DE0BC09A
:1023600081E080930802F2DEC3DE05C0EFDEC0DE4E
:1023700002C0ECDEBDDE8091820281116DC520912C
:10238000830230918402232B09F060C59091690487
:102390009111D3C390916A049111CFC357C5109284
:1023A0006902109268027894E8E6F0E0808181602A
:1023B0008083EBE6F0E08081806180832CC12091F6
:1023C0006D04211108C020916C04211104C02091DA
:1023D0006B04222369F181112EC048EC50E062E0C9
:1023E00070E08AEF99E10E941D0887E090E09093E9
:1023F00006028093050280E792E00E94DE000E94C0
:1024000062209B01772324F422273327261B370BD6
:10241000283C39410CF4FFC07894E8E6F0E0808174
:1024200081608083EBE6F0E0808180618083F3C08F
:10243000882309F47AC08091810281113AC081E039
:1024400090E0909384028093830210922202E7E14D
:10245000F3E080E090E0A0E0B0E4858B968BA78B62
:10246000B08F118E128E138E148E80E090E0A0EF4C
:10247000B1E4858F968FA78FB0A387E090E090930B
:10248000060280930502EBE6F0E080818F7E808378
:102490007894E8E6F0E0808184608083EDE6F0E007
:1024A0008081806880834CE362E088EE93E0A0DD69
:1024B000B2C020918302309184022130310509F0AD
:1024C000BCC420910502309106022730310509F085
:1024D000B4C480916904811105C080916A04882385
:1024E00009F4ABC485E090E090938402809383026A
:1024F0000E94BD03909326038093250388E090E01B
:102500009093060280930502EDE6F0E080818F77DC
:1025100080830E94DF05ECDD109271021092700240
:10252000109269021092680276C020918302309165
:1025300084022130310509F06EC080918102882328
:1025400009F469C091110DC080916D04811109C019
:1025500080916C04811105C080916B04882309F47B
:102560005AC08091050290910602079709F053C066
:102570001AC381E080937E0280937F028093800261
:1025800080938102809382028093080244C08091EC
:102590006D048823C9F081E080937C0280937D02E2
:1025A00080937E0280937F028093800280938102D9
:1025B0008093820280938C0280938E0280938802A3
:1025C0008AE60E94171F27C080916C04882391F02F
:1025D00081E080937C0280937D0280937E028093D1
:1025E0007F02809380028093810280938202109206
:1025F000080211C080916B04882369F081E0809308
:102600007E0280937F028093800280938102809378
:1026100082028093080280918E02882309F429C4E3
:1026200080918C02882309F424C480918A02882333
:1026300009F4DBC280918002811113C08091830272
:10264000909184020597F1F4D6C27894E8E6F0E020
:10265000808184608083EDE6F0E080818068808303
:1026600011C080917F0281110DC0809183029091F1
:102670008402059739F4809105029091060207972C
:1026800009F4D8C280918302909184020297D9F410
:1026900080910502909106020897A9F4E7C281E3B0
:1026A0000E94171F10928B020E94FC1E80937802DA
:1026B000873649F481E08093870210928A0280E293
:1026C0008093780204C080918702882391F18091E1
:1026D0008002882371F180917F0281112FC044E62E
:1026E00050E063E070E08CE697E01ADB87E090E072
:1026F000909306028093050288E692E00E94DE0035
:102700000E9462209B01772324F422273327261B73
:10271000370B203B34400CF45FC07894E8E6F0E0DF
:10272000808184608083EDE6F0E080818068808332
:1027300053C080917F02882309F4C1C280910502B1
:1027400090910602079709F0BAC280918302909196
:102750008402029709F0B3C290C280917E02811177
:102760002EC044E650E062E070E084E398E00E940E
:102770001D0887E090E0909306028093050280E7B1
:1027800092E00E94DE000E9462209B01772324F4E5
:1027900022273327261B370B2C363740ECF0789452
:1027A000E8E6F0E0808181608083EBE6F0E0808104
:1027B0008061808311C080917E02882369F08091BE
:1027C000050290910602079739F480918302909157
:1027D0008402059709F478C280918902882369F1FF
:1027E00080917D0281112DC087E090E090930602D8
:1027F0008093050244E650E062E070E086EC97E0EA
:102800008FDA88E692E00E94DE000E9462209B013F
:10281000772324F422273327261B370B203B344011
:102820000CF17894E8E6F0E0808184608083EDE646
:10283000F0E080818068808315C080917D028823CC
:1028400089F080917C0281110DC08091830290916A
:102850008402069739F48091050290910602079749
:1028600009F454C28091830290918402039719F570
:1028700080910502909106020897E9F463C282E311
:102880000E94171F1092710210927002109269023A
:102890001092680210928B020E94FC1E80937802B4
:1028A000873649F481E0809386021092880280E2A4
:1028B0008093780204C080918602882389F18091F8
:1028C0007D02882369F180917C0281112DC044E64C
:1028D00050E063E070E08EE497E022DA87E090E079
:1028E000909306028093050288E692E00E94DE0043
:1028F0000E9462209B01772324F422273327261B82
:10290000370B203B3440ECF07894E8E6F0E080812F
:1029100084608083EDE6F0E080818068808311C070
:1029200080917C02882369F08091050290910602D3
:10293000079739F48091830290918402039709F4F8
:102940000EC280918802882309F444C080917B02E2
:10295000811144C0E7E1F3E080E090E0A0E0B0E462
:10296000858B968BA78BB08F118E128E138E148E43
:1029700080E090E0A0EFB1E4858F968FA78FB0A3A1
:1029800046E950E062E070E089E694E1C9D987E069
:1029900090E0909306028093050288E692E00E9400
:1029A000DE000E9462209B01772324F42227332734
:1029B000261B370B203A3F400CF444C07894E8E6DD
:1029C000F0E0808184608083EDE6F0E080818068C3
:1029D000808338C080917B028823A1F1809183029B
:1029E00090918402069709F03CC280910502909173
:1029F0000602079709F035C2D5C180910502909172
:102A000006020897F9F4ECC180918B028111EDC1A7
:102A10000E94FC1E80937802803721F481E080932D
:102A2000980310C0843619F4109298030BC08736AF
:102A300049F481E0809386021092880280E28093BC
:102A4000780205C080918602882309F441C08091F4
:102A50007B028823E9F180917A0281113EC0E7E18F
:102A6000F3E080E090E0A0E0B0E4858B968BA78B4C
:102A7000B08F118E128E138E148E80E090E0A0EF36
:102A8000B1E4858F968FA78FB0A387E090E09093F5
:102A900006028093050288E692E00E94DE000E9412
:102AA00062209B01772324F422273327261B370B30
:102AB000203A3F400CF4DDC17894E8E6F0E08081F4
:102AC00084608083EDE6F0E08081806880830895F3
:102AD00080917A02882309F4CCC1809105029091FB
:102AE0000602079709F0C5C1809183029091840284
:102AF000049709F0BEC17FC180917F028111F8CB9C
:102B000004CC81E080938A0210927F0210928002AE
:102B10001DDB31CC85E090E09093840280938302AA
:102B200081E08093850280938E0280938C0223CC77
:102B300080916B04811114CC19CCE7E1F3E080E0C3
:102B400090E0A0E0B0E4858B968BA78BB08F118EC0
:102B5000128E138E148E80E090E0A0EFB1E4858F8A
:102B6000968FA78FB0A348EC50E062E070E088EF4A
:102B700091E10E941D0887E090E090930602809307
:102B8000050280E792E00E94DE000E9462209B0125
:102B9000772324F422273327261B370B2033314198
:102BA0000CF0FDCB38CDEDE6F0E080818F778083AF
:102BB0001092220286E090E0909384028093830238
:102BC00088E090E090930602809305020E94DF0562
:102BD00010927102109270021092690210926802B3
:102BE00080916E048111C5CCD2CC80918002882363
:102BF00009F448CD36CD87E090E0909306028093AB
:102C0000050244E650E062E070E080ED97E088D88D
:102C100088E692E00E94DE000E9462209B017723FA
:102C200024F422273327261B370B203436400CF0A0
:102C30000CCD28CDEDE6F0E080818F7780830E9477
:102C4000DF0582E090E090938402809383021092EB
:102C5000710210927002109269021092680288E06C
:102C600090E090930602809305020CCD41DA8091AA
:102C70008B02882309F418CD12CDEDE6F0E08081B7
:102C80008F77808385E090E0909384028093830225
:102C90000E94DF0510927102109270021092690278
:102CA0001092680288E090E09093060280930502FB
:102CB00010928E0210928C02109287028DCD80911C
:102CC000850281114ACD77CD10928502EBE6F0E0C6
:102CD00080818F7E80830E94DF0586E090E0909364
:102CE00084028093830288E090E0909306028093B0
:102CF00005021092710210927002109269021092F5
:102D0000680210928E0210928C0266CD83E090E0F1
:102D10009093840280938302EDE6F0E080818F77C8
:102D200080831092710210927002109269021092C8
:102D3000680288E090E090930602809305020E946A
:102D4000DF0590CDEFE9F3E0118210821382128249
:102D5000CFD980918B02882309F49ECD90CDC8D91C
:102D6000EDE6F0E080818F7780830E94DF0510928E
:102D7000710210927002109269021092680286E04D
:102D800090E0909384028093830288E090E0909397
:102D900006028093050210928E0210928C0210920D
:102DA0008602CFCDEDE6F0E080818F7780830E94B0
:102DB000DF05109271021092700210926902109257
:102DC000680288E090E090930602809305021092DA
:102DD000880284E090E0909384028093830232CE54
:102DE0000E948F0D811110CE13CE83E30E94171F16
:102DF00010928B020DCEEDE6F0E080818F7780831C
:102E00000E94DF0510927102109270021092690206
:102E10001092680286E090E090938402809383028F
:102E200088E090E0909306028093050210928E0253
:102E300010928C02109286020895209183023091A4
:102E400084022130310509F0E6CB7CCB90916E04F1
:102E5000992309F4B4CAC1CA90916E049111EBCAC6
:102E6000AECA8091830290918402049709F0EACD62
:102E7000C4CD08951F920F920FB60F9211240BB676
:102E80000F922F933F934F935F936F937F938F9303
:102E90009F93AF93BF93EF93FF9380918202811131
:102EA00006C081E0809382028093680422C08091F2
:102EB0007E02811108C081E080937E0280936804C5
:102EC0000E94DF0516C080917902811112C081E055
:102ED000809379020E94DF05EBE6F0E080818F7E2F
:102EE0008083109271021092700210926902109207
:102EF0006802FF91EF91BF91AF919F918F917F9168
:102F00006F915F914F913F912F910F900BBE0F905A
:102F10000FBE0F901F9018951F920F920FB60F9231
:102F200011240BB60F922F933F934F935F936F93A0
:102F30007F938F939F93AF93BF93EF93FF93809172
:102F40008102811106C081E0809381020E94DF0529
:102F500041C080918002811108C081E080938B0282
:102F6000809380020E94DF0535C080917F0281112D
:102F700006C081E080937F020E94DF052BC0809114
:102F80007D02811108C081E080938B0280937D02D5
:102F90000E94DF051FC080917C02811106C081E084
:102FA00080937C020E94DF0515C080917B02811115
:102FB00008C081E080938B0280937B020E94DF0532
:102FC00009C080917A02811105C081E080937A0264
:102FD0000E94DF05FF91EF91BF91AF919F918F917B
:102FE0007F916F915F914F913F912F910F900BBE09
:102FF0000F900FBE0F901F901895AAE0B1E08C9132
:103000008F7B8C938C918F7E8C93EBE0F1E08081B1
:10301000806480838081806180838C918B7F8C939E
:1030200080818B7F8083E1E0F1E08081877F8083F6
:103030006B98E2E0F1E0808188608083739AE7E03A
:10304000F1E08081816080838081826080838081E3
:1030500084608083808188608083E8E0F1E0808103
:103060008E7F808380818D7F80838081877F808336
:1030700087E690E065D589E190E016D689E190E099
:10308000A2D678940E942E051ED90E945A07FCCF22
:1030900081EE93E03DD0E9E5F3E01086118681E012
:1030A000808BE8E3F3E010861186808BE7E1F3E0A4
:1030B00010861186808BE6EFF2E010861186808BF9
:1030C000E5EDF2E010861186808BE0EBF2E01086F1
:1030D0001186808BEFE8F2E010861186808B1092CB
:1030E00071021092700280E792E00E94CB0080E7AC
:1030F00092E00E94D600109269021092680288E65F
:1031000092E00E94CB0088E692E00C94D6000895ED
:10311000FC0114AE15AE16AE17AEDC01A05CBF4FBD
:103120001D921D921D921C92139714961D921D9232
:103130001D921C921397D4961C92D0971D921D92AB
:103140001D921C92139714961D921D921D921C9213
:10315000139714961D921D921D921C92139710AAFC
:1031600011AA12AA13AA14AA15AA16AA17AA10AE6F
:1031700011AE12AE13AE94961D921D921D921C922A
:10318000139718974FE35EE16AEF7BE34D935D93EE
:103190006D937C931397E059FF4F80E49AEDAFE76E
:1031A000B8E380839183A283B38308952FEF82E5F0
:1031B00097E0215080409040E1F700C0000080ED92
:1031C000CDD38BE638D480E036D4F1D380EDC6D3AE
:1031D00089E131D489E12FD4EAD380EDBFD38AE1EC
:1031E0002AD480E028D4E3D380EDB8D38BE123D474
:1031F00080E021D4DCD380EDB1D388E31CD481E01E
:103200001AD4D5D380EDAAD38CE115D480E013D4A1
:10321000CEC30895CF93C62F80EDD2D38C2F0BD47D
:1032200081EDC3D3CF910895AF92BF92CF92DF9239
:10323000EF92FF920F931F93CF93DF938C01EB01DB
:103240006BE3CE01E7DF09D4A82E07D4B82E05D44E
:10325000C82E03D4E82E01D4D82E0AD4F82E6B2D14
:1032600070E07A29072E000C880B990B5ED7FE01BF
:10327000E85BFF4F2081318142815381EDD5688326
:1032800079838A839B836E2D70E07C29072E000C46
:10329000880B990B4AD7FE01E45BFF4F20813181F7
:1032A00042815381D9D56C837D838E839F836F2D1B
:1032B00070E07D29072E000C880B990B36D76887A4
:1032C00079878A879B8773D38CE0FE01D8010190B0
:1032D0000D928A95E1F7C801DF91CF911F910F916F
:1032E000FF90EF90DF90CF90BF90AF900895AF9296
:1032F000BF92CF92DF92EF92FF920F931F93CF93E3
:10330000DF93CDB7DEB72C970FB6F894DEBF0FBEB4
:10331000CDBF5C018B01CE01019686DFF801E0593B
:10332000FF4FC080D180E280F380A7019601F801B1
:1033300060817181828193810E94AE21F801608F4A
:10334000718F828F938FA701960164817581868129
:1033500097810E94AE21F801648F758F868F978FB9
:10336000A70196016085718582859385F7D7F8015D
:1033700060A371A382A393A38CE07896D5010190FA
:103380000D928A95E1F7C5012C960FB6F894DEBF31
:103390000FBECDBFDF91CF911F910F91FF90EF90A6
:1033A000DF90CF90BF90AF900895FF920F931F933F
:1033B000CF93DF938C01EB0163E4CE012BDF4DD380
:1033C000F82E4BD36F2D70E0762F6627682B072ED3
:1033D000000C880B990BA9D66C877D878E879F87F9
:1033E0003CD3F82E3AD36F2D70E0762F6627682BEA
:1033F000072E000C880B990B98D6688B798B8A8BDB
:103400009B8B2BD3F82E34D36F2D70E0762F66274D
:10341000682B072E000C880B990B87D66C8B7D8B45
:103420008E8B9F8BC4D28CE0FE013C96D80101901C
:103430000D928A95E1F7C801DF91CF911F910F910D
:10344000FF900895CF92DF92EF92FF921F93CF9358
:10345000DF93EC01162F662309F43BC0FC01E8580A
:10346000FF4F8081811103C062E3CE0151D0612FF3
:1034700070E080E090E059D66B017C019B01AC01CB
:10348000FE01EC5AFF4F608171818281938166D782
:1034900068AB79AB8AAB9BABA7019601FE01E85AFA
:1034A000FF4F608171818281938158D76CAB7DAB76
:1034B0008EAB9FABA7019601FE01E45AFF4F6081DE
:1034C0007181828193814AD768AF79AF8AAF9BAF10
:1034D0000CC018AA19AA1AAA1BAA1CAA1DAA1EAABD
:1034E0001FAA18AE19AE1AAE1BAECC58DF4F612F13
:1034F00070E080E090E017D6688379838A839B83AD
:10350000DF91CF911F91FF90EF90DF90CF900895C2
:103510002F923F924F925F926F927F928F929F92E3
:10352000AF92BF92CF92DF92EF92FF920F931F93D1
:10353000CF93DF93CDB7DEB7A4970FB6F894DEBF75
:103540000FBECDBF1C01062FFC01E858FF4F81E0E4
:103550008083662309F487C010E0198E1A8E1B8EB3
:103560001C8E1D8A1E8A1F8A188E1D861E861F8627
:10357000188A19A21AA21BA21CA21D8E1E8E1F8EB3
:1035800018A2198A1A8A1B8A1C8AB101CE010196D7
:103590000CDFF1014484558466847784A301920191
:1035A00069897A898B899C8958D4698B7A8B8B8BB2
:1035B0009C8BF10180889188A288B388A501940131
:1035C0006D8D7E8D8F8D98A148D46D8F7E8F8F8F5E
:1035D00098A3F101C488D588E688F788A7019601E9
:1035E00069A17AA18BA19CA138D469A37AA38BA3EA
:1035F0009CA3A3019201C301B201B0D69B01AC010F
:103600006D857E858F85988928D46D877E878F8785
:10361000988BA5019401C501B401A0D69B01AC0112
:103620006D897E898F89988D18D46D8B7E8B8F8B59
:10363000988FA7019601C701B60190D69B01AC01F6
:10364000698D7A8D8B8D9C8D08D4698F7A8F8B8F45
:103650009C8F8FE19EE40197F1F700C000001F5F8F
:10366000011393CF18C0198E1A8E1B8E1C8E1D8AC3
:103670001E8A1F8A188E1D861E861F86188A19A20A
:103680001AA21BA21CA21D8E1E8E1F8E18A2198AA2
:103690001A8A1B8A1C8A602F70E080E090E045D572
:1036A0004B015C019B01AC0169897A898B899C89FA
:1036B000A1D46B017C01F10164AF75AF86AF97AF08
:1036C000A50194016D8D7E8D8F8D98A193D42B01D2
:1036D0003C01F101E05CFF4F60837183828393833F
:1036E000A501940169A17AA18BA19CA183D44B016E
:1036F0005C01F101EC5BFF4F6083718382839383F4
:1037000020E030E048E452E46D857E858F8598891D
:1037100071D4698B7A8B8B8B9C8B20E030E048E4F2
:1037200052E46D857E858F85988964D46D877E8708
:103730008F87988BA7019601C701B6010FD69B0111
:10374000AC016D857E858F85988986D374D6F1010D
:10375000EC5AFF4F608371838283938320E030E0D3
:1037600048E452E46D897E898F89988D43D46B013A
:103770007C01A3019201C301B201F0D59B01AC0110
:10378000C701B60169D357D6F101E85AFF4F6083EC
:1037900071838283938320E030E048E452E4698DB2
:1037A0007A8D8B8D9C8D26D46B017C01A5019401B3
:1037B000C501B401D3D59B01AC01C701B6014CD3FF
:1037C0003AD6F101E45AFF4F608371838283938379
:1037D0007896C080D180E280F38020E030E0A901BB
:1037E000C701B601B0D518162CF4C701B6016FD4C5
:1037F000C10128DEA4960FB6F894DEBF0FBECDBF80
:10380000DF91CF911F910F91FF90EF90DF90CF90BC
:10381000BF90AF909F908F907F906F905F904F90F0
:103820003F902F900895EF92FF920F931F93CF93A5
:10383000DF93CDB7DEB72C970FB6F894DEBF0FBE7F
:10384000CDBF8C01BC01CE010196AFDD780180E6D1
:10385000E80EF11C20E030E043E053E4F801648519
:10386000758586859785C6D3F701608371838283CA
:1038700093837801F4E6EF0EF11C20E030E043E0A2
:1038800053E4F8016089718982899389B3D3F70180
:1038900060837183828393837801F8E6EF0EF11CD5
:1038A00020E030E043E053E4F801648975898689BB
:1038B0009789A0D3F70160837183828393832C96C9
:1038C0000FB6F894DEBF0FBECDBFDF91CF911F9131
:1038D0000F91FF90EF900895805A9F4FFC016081F7
:1038E00071818281938108958C599F4FFC01608181
:1038F000718182819381089588599F4FFC01608175
:1039000071818281938108957899FECF799904C05D
:1039100081E080936E0408957A9904C081E08093D9
:103920006D0408957B9904C081E080936C04089530
:103930007C9904C081E080936B0408957D9904C054
:1039400081E080936A04089581E08093690408957A
:103950001092B90088E48093B800089594EA909397
:10396000BC00ECEBF0E090819923ECF79091B9006A
:10397000987F983011F09031A1F48093BB0084E8D7
:103980008093BC00ECEBF0E080818823ECF7909111
:10399000B900987F983139F081E0903429F480E0C3
:1039A000089581E0089580E00895D8CF089584E9CE
:1039B0008093BC00ECEBF0E0808184FDFDCF0895A6
:1039C000BF92CF92DF92EF92FF920F931F93CF930C
:1039D000DF93B82ECCEBD0E009EB10E00F2EF4EA29
:1039E000DF2EF02D0F2EFBEBEF2EF12CF02D0F2EF6
:1039F000F4E8CF2EF02DD88288818823ECF7F801E7
:103A00008081887F8830B9F7F701B082C8828881C9
:103A10008823ECF7F8018081887F883111F0C7DFB7
:103A2000EACFDF91CF911F910F91FF90EF90DF9040
:103A3000CF90BF9008958093BB0084E88093BC0032
:103A4000ECEBF0E080818823ECF79091B900987F4F
:103A500081E0983209F480E0089584EC8093BC0002
:103A6000ECEBF0E080818823ECF78091BB000895B7
:103A700084E88093BC00ECEBF0E080818823ECF7D5
:103A80008091BB0008951F920F920FB60F921124E0
:103A90000BB60F922F938F939F93EF93FF93809189
:103AA000C0002091C6008871E0911F05EF5FEF71A3
:103AB00090911E05E91739F0E0931F05F0E0EE5DE7
:103AC000FA4F208301C082E080931D05FF91EF91A2
:103AD0009F918F912F910F900BBE0F900FBE0F9063
:103AE0001F9018951F920F920FB60F9211240BB6CC
:103AF0000F928F939F93EF93FF9390912105809165
:103B00002005981769F0E0912005EF5FEF71E093D1
:103B10002005F0E0EE5BFA4F80818093C60005C07F
:103B2000E1ECF0E080818F7D8083FF91EF919F91A8
:103B30008F910F900BBE0F900FBE0F901F90189596
:103B4000109221051092200510921F0510921E055B
:103B5000992324F422E02093C0009F779093C5001E
:103B60008093C40088E98093C10086E08093C200FE
:103B700008951F920F920FB60F9211240BB60F9259
:103B80002F938F939F93EF93FF938091C800209181
:103B9000CE008871E091DA04EF5FEF719091D90463
:103BA000E91739F0E093DA04F0E0E352FB4F2083A9
:103BB00001C082E08093D804FF91EF919F918F9193
:103BC0002F910F900BBE0F900FBE0F901F90189566
:103BD0001F920F920FB60F9211240BB60F928F9374
:103BE0009F93EF93FF939091DC048091DB049817EF
:103BF00069F0E091DB04EF5FEF71E093DB04F0E04C
:103C0000E350FB4F80818093CE0005C0E9ECF0E0EB
:103C100080818F7D8083FF91EF919F918F910F9095
:103C20000BBE0F900FBE0F901F9018951F920F9212
:103C30000FB60F9211248F938091D6008093620566
:103C40008F910F900FBE0F901F9018951F920F929B
:103C50000FB60F9211240BB60F928F939F93EF9391
:103C6000FF939091B7048091B604981769F0E091A2
:103C7000B604EF5FEF71E093B604F0E0E854FB4F59
:103C800080818093D60005C0E1EDF0E080818F7DDA
:103C90008083FF91EF919F918F910F900BBE0F90BA
:103CA0000FBE0F901F9018951092B7041092B60493
:103CB0001092B5041092B404992324F422E02093C6
:103CC000D0009F779093D5008093D40088E98093AB
:103CD000D10086E08093D20008958091620590E043
:103CE00008952091B7042F5F2F719091B604291782
:103CF000E1F3E22FF0E0E854FB4F80832093B70418
:103D0000E1EDF0E080818062808308951F920F9240
:103D10000FB60F9211240BB60F922F938F939F9390
:103D2000EF93FF9380913001209136018871E091EB
:103D30007104EF5FEF7190917004E91739F0E0932F
:103D40007104F0E0EC58FB4F208301C082E08093C7
:103D50006F04FF91EF919F918F912F910F900BBE68
:103D60000F900FBE0F901F9018951F920F920FB6D5
:103D70000F9211240BB60F928F939F93EF93FF93A3
:103D80009091730480917204981769F0E091720425
:103D9000EF5FEF71E0937204F0E0EC56FB4F80812F
:103DA0008093360105C0E1E3F1E080818F7D80835F
:103DB000FF91EF919F918F910F900BBE0F900FBECF
:103DC0000F901F9018951092730410927204109225
:103DD000710410927004992324F426E0209330019A
:103DE0009F77909335018093340188E98093310166
:103DF00086E080933201089590917104809170045F
:103E0000981791F0E0917004EF5FEF71E093700408
:103E1000F0E0EC58FB4F208180916F0490E0982FE8
:103E20008827820F911D089580E091E008952091E8
:103E300073042F5F2F71909172042917E1F3E22F21
:103E4000F0E0EC56FB4F808320937304E1E3F1E054
:103E500080818062808308955058BB27AA270ED0A6
:103E600027C2F0D130F0F5D120F031F49F3F11F4AA
:103E70001EF4C0C10EF4E095E7FBB6C1E92F3AD2BB
:103E800080F3BA17620773078407950718F071F477
:103E90009EF552C20EF4E0950B2EBA2FA02D0B0109
:103EA000B90190010C01CA01A0011124FF27591B7F
:103EB00099F0593F50F4503E68F11A16F040A22F85
:103EC000232F342F4427585FF3CF469537952795F6
:103ED000A795F0405395C9F77EF41F16BA0B620BF5
:103EE000730B840BBAF09150A1F0FF0FBB1F661F3C
:103EF000771F881FC2F70EC0BA0F621F731F841F7F
:103F000048F4879577956795B795F7959E3F08F0A4
:103F1000B3CF9395880F08F09927EE0F9795879563
:103F2000089590D158F080E891E009F49EEF91D186
:103F300028F040E851E059F45EEF09C05BC1FCC1D4
:103F4000E92FE078D7D168F3092E052AC1F32617A7
:103F500037074807590738F00E2E07F8E02569F0B3
:103F6000E025E0640AC0EF6307F8009407FADB017C
:103F7000B9019D01DC01CA01AD01EF934AD098D18E
:103F80000AD05F91552331F02BED3FE049E450FD1D
:103F900049EC63CF0895DF93DD27B92FBF7740E861
:103FA0005FE31616170648075B0710F4D92FCFD129
:103FB0009F938F937F936F937CD2E4EEF0E01DD1BB
:103FC00077D12F913F914F915F91D4D1DD2349F06B
:103FD0009058A2EA2AED3FE049EC5FE3D0785D27F4
:103FE0004DDFDF9165C1DCD008F481E0089539D15F
:103FF000E3956FC10CD05CC12CD140F023D130F0DF
:1040000021F45F3F19F0F0C0511197C1F3C072D194
:1040100098F39923C9F35523B1F3951B550BBB278F
:10402000AA2762177307840738F09F5F5F4F220F3C
:10403000331F441FAA1FA9F333D00E2E3AF0E0E835
:1040400030D091505040E695001CCAF729D0FE2F81
:1040500027D0660F771F881FBB1F26173707480713
:10406000AB07B0E809F0BB0B802DBF01FF279358C9
:104070005F4F2AF09E3F510568F0B6C05EC15F3FBA
:10408000ECF3983EDCF3869577956795B795F795B1
:104090009F5FC9F7880F911D9695879597F90895A9
:1040A000E1E0660F771F881FBB1F62177307840745
:1040B000BA0720F0621B730B840BBA0BEE1F88F754
:1040C000E095089504D06894B11137C108951AD1CC
:1040D00088F09F5790F0B92F9927B751A0F0D1F0F1
:1040E000660F771F881F991F1AF0BA95C9F712C07B
:1040F000B13081F021D1B1E008951EC1672F782F32
:104100008827B85F39F0B93FCCF3869577956795E6
:10411000B395D9F73EF490958095709561957F4F52
:104120008F4F9F4F0895E89409C097FB3EF49095F8
:104130008095709561957F4F8F4F9F4F9923A9F080
:10414000F92F96E9BB279395F6958795779567950F
:10415000B795F111F8CFFAF4BB0F11F460FF1BC053
:104160006F5F7F4F8F4F9F4F16C0882311F096E9E6
:1041700011C0772321F09EE8872F762F05C0662394
:1041800071F096E8862F70E060E02AF09A95660F4D
:10419000771F881FDAF7880F9695879597F9089506
:1041A000990F0008550FAA0BE0E8FEEF1616170648
:1041B000E807F907C0F012161306E407F50798F0B0
:1041C000621B730B840B950B39F40A2661F0232BC9
:1041D000242B252B21F408950A2609F4A140A69545
:1041E0008FEF811D811D089597F99F6780E870E02A
:1041F00060E008959FEF80EC0895DF93CF931F93C5
:104200000F93FF92EF92DF927B018C01689405C0BF
:10421000DA2EEF01AFD0FE01E894A59125913591FA
:1042200045915591AEF3EF0129DEFE019701A801FA
:10423000DA9479F7DF90EF90FF900F911F91CF9173
:10424000DF91089500240A94161617061806090629
:10425000089500240A9412161306140605060895FC
:10426000C9CF50D0E8F3E894E0E0BB279F57F0F0C7
:104270002AED3FE049EC06C0EE0FBB0F661F771F2B
:10428000881F28F0B23A62077307840728F0B25AF1
:10429000620B730B840BE3959A9572F7803830F4B8
:1042A0009A95BB0F661F771F881FD2F7904806C1EB
:1042B000092E0394000C11F4882352F0BB0F40F434
:1042C000BF2B11F460FF04C06F5F7F4F8F4F9F4F74
:1042D0000895EF93E0FF06C0A2EA2AED3FE049EC23
:1042E0005FEBCCDDE5DF0F90039401FC9058E1E13A
:1042F000F1E0F7C057FD9058440F551F59F05F3F4C
:1043000071F04795880F97FB991F61F09F3F79F0F7
:1043100087950895121613061406551FF2CF469579
:10432000F1DF08C0161617061806991FF1CF8695FB
:104330007105610508940895E894BB2766277727DF
:10434000CB0197F908952CDF08F48FEF08959B01B6
:10435000AC0160E070E080E89FE34CCE0BD0A8CFCA
:1043600071DF28F076DF18F0952309F03DCF42CFBA
:104370001124E3CFBFDFA0F3959FD1F3950F50E059
:10438000551F629FF001729FBB27F00DB11D639F07
:10439000AA27F00DB11DAA1F649F6627B00DA11DAD
:1043A000661F829F2227B00DA11D621F739FB00D53
:1043B000A11D621F839FA00D611D221F749F3327C3
:1043C000A00D611D231F849F600D211D822F762F5C
:1043D0006A2F11249F5750408AF0E1F088234AF059
:1043E000EE0FFF1FBB1F661F771F881F91505040A5
:1043F000A9F79E3F510570F0F7CE9FCF5F3FECF3DA
:10440000983EDCF3869577956795B795F795E79590
:104410009F5FC1F7FE2B880F911D9695879597F9A1
:1044200008959F931EDF0F9007FCEE5F52CF11F4AB
:104430000EF4E0CE41C066DFD0F39923D9F3CEF37A
:104440009F57550B87FF46D00024A0E640EA900115
:1044500080585695979528F4805C660F771F881FC3
:1044600020F026173707480730F4621B730B840BC4
:10447000202931294A2BA695179407942025312508
:104480004A2758F7660F771F881F20F0261737072F
:10449000480730F4620B730B840B200D311D411D56
:1044A000A09581F7B901842F9158880F969587952B
:1044B00008959B01AC0152CF9F3F31F0915020F401
:1044C000879577956795B795880F911D96958795F0
:1044D00097F9089591505040660F771F881FD2F7C3
:1044E00008959F938F937F936F93FF93EF939B0117
:1044F000AC0134DFEF91FF9180DE2F913F914F911E
:104500005F912CCF97FB072E16F4009406D077FD11
:1045100008D00BD007FC05D03EF4909581959F4FB5
:104520000895709561957F4F0895AA1BBB1B51E1BB
:1045300007C0AA1FBB1FA617B70710F0A61BB70B13
:10454000881F991F5A95A9F780959095BC01CD01B8
:104550000895EE0FFF1F881F8BBF0790F691E02D87
:064560001994F894FFCF4E
:104566000101010101080001012D230707FFFF01D9
:10457600010101FFFF01FFFF01FF0101FF00000034
:10458600000101000080BF0000803F0000803F0066
:104596000080BF000080BF0000803F0000803F0019
:1045A6000080BF0000803F0000803F0000803F0089
:1045B60000803F010101010A0014001E002800329C
:0845C600003C0046005000001B
:00000001FF
