S00E00004D61737465722E73726563AA
S113000098C00000C7C00000C5C00000F5C00000D3
S1130010C1C00000BFC0000016C10000BBC000008A
S1130020B9C000000C945917B5C000000C94AB176C
S1130030B1C00000AFC00000ADC00000C0C10000EE
S1130040A9C00000A7C00000A5C00000A3C0000014
S1130050A1C000009FC000009DC000001BC10000A3
S113006099C000000C94541D0C94831D93C000008F
S113007091C000008FC000008DC000008BC0000044
S113008089C0000087C0000085C0000083C0000054
S11300900C94ED1D0C941C1E7DC000007BC0000060
S11300A079C0000077C0000075C0000073C0000074
S11300B071C000006FC000006DC000006BC0000084
S11300C069C0000067C0000065C000000C944A1EAF
S11300D00C945A1E5FC000000C94BA1E0C94E91EC6
S11300E059C00000084AD73B3BCE016E84BCBFFD1B
S11300F0C12F3D6C74319ABD56833DDA3D00C77FF4
S113010011BED9E4BB4C3E916BAAAABE000000808C
S11301103F05A84CCDB2D44EB93836A9020C50B91B
S1130120918688083CA6AAAA2ABE000000803F0047
S1130130581811241FBECFEFD1E2DEBFCDBF00E0BF
S11301400CBF12E0A0E0B2E0EEECF5E400E00BBF7F
S113015002C007900D92AE3BB107D9F725E0AEEB94
S1130160B2E001C01D92A93BB207E1F710E0C9E972
S1130170D0E000E006C021970109802FFE010E9413
S1130180DD22C839D10780E00807A9F70E941C18AE
S11301900C94E52235CF789480E3809369008CE059
S11301A080936A008DB384628DBB0895789485B57D
S11301B0856085BD81E080936E000895CF93DF93C1
S11301C0EC0168817981072E000C880B990B0E9441
S11301D0C9202EEF34E346E353E40E94E22120E0F9
S11301E030E048E453E40E942E206C837D838E83A8
S11301F09F83DF91CF9108951F920F920FB60F92B4
S113020011240BB60F928F939F93EF93FF93009B50
S113021008C0E6ECF2E080819181019691838083AD
S113022007C0E6ECF2E0808191810197918380839D
S1130230FF91EF919F918F910F900BBE0F900FBE86
S11302400F901F9018951F920F920FB60F921124C2
S11302500BB60F928F939F93EF93FF93059B08C068
S1130260EEEBF2E08081918101969183808307C057
S1130270EEEBF2E080819181019791838083FF917D
S1130280EF919F918F910F900BBE0F900FBE0F9027
S11302901F9018951F920F920FB60F9211248F93EF
S11302A081E080930202809304028093030280938E
S11302B00102809300028F910F900FBE0F901F9048
S11302C018950E94B91C8CE30E94BF1C80E00E9418
S11302D02C1D80E70E942C1D0E94E81C8CE30E94C8
S11302E0BF1C81E00E942C1D80EA0E942C1D0E94EC
S11302F0E81C8CE30E94BF1C82E00E942C1D80E05D
S11303000E942C1D0C94E81C08958CE30E94BF1CD1
S113031083E00E942C1D0E94E81C8DE30E94E61CD1
S11303200E943E1D1092BC048093BD040E943E1D99
S11303302091BC043091BD04282B3093BD0420933C
S1130340BC040E943E1D1092B8048093B9040E941C
S11303503E1D2091B8043091B904282B3093B90480
S11303602093B8040E943E1D1092BA048093BB04EB
S11303700E94491D2091BA043091BB04282B30936C
S1130380BB042093BA040C94E81C08952FB7F89486
S11303906091B4047091B5048091B6049091B7044F
S11303A02FBF0895E1EBF0E0808184608083E0E773
S11303B0F0E08081816080831092B20008951F92E2
S11303C00F920FB60F9211248F939F93AF93BF9305
S11303D08091B4049091B504A091B604B091B7048F
S11303E00196A11DB11D8093B4049093B504A0930C
S11303F0B604B093B7048091B0049091B104A09175
S1130400B204B091B3040396A11DB11D8093B0044E
S11304109093B104A093B204B093B3048091B00458
S11304209091B104A091B204B091B3048D379105B9
S1130430A105B10538F18091B0049091B104A09167
S1130440B204B091B3048D579109A109B109809305
S1130450B0049093B104A093B204B093B304809118
S1130460B4049091B504A091B604B091B704019678
S1130470A11DB11D8093B4049093B504A093B60458
S1130480B093B704BF91AF919F918F910F900FBE1E
S11304900F901F90189515DF87E394E00E94E618EB
S11304A062E387E394E00E94991A7CDF6FDF609334
S11304B01B0470931C0480931D0490931E040895E0
S11304C04F925F926F927F928F929F92AF92BF9260
S11304D0CF92DF92EF92FF920F931F93CF93DF930C
S11304E0CDB7DEB764970FB6F894DEBF0FBECDBFAD
S11304F069837A838B839C8329013A01E98AFA8A86
S11305000B8B1C8B0E942B206D877E878F87988B8B
S113051069817A818B819C810E94452269837A83D7
S11305208B839C83C301B2010E942B206D837E8345
S11305308F839887C301B2010E94452269877A8715
S11305408B879C87A60195016D817E818F8198851B
S11305500E94E2212B013C0128A539A54AA55BA5EF
S113056069857A858B859C850E94E2219B01AC017B
S1130570C301B2010E94601F2B013C01A601950139
S113058069817A818B819C810E94E22129853A8547
S11305904B855C850E94E2214B015C01A801970117
S11305A06D857E858F8598890E94E2219B01AC012F
S11305B0C501B4010E94601F4B015C0128A539A547
S11305C04AA55BA569817A818B819C810E94E22185
S11305D02D813E814F8158850E94E2219B01AC010F
S11305E0C501B4010E94611F9058A30192010E94A9
S11305F0D41F21EE3EE245E652E40E94E2210E942D
S113060096209B01772314F428593E4FC901649620
S11306100FB6F894DEBF0FBECDBFDF91CF911F910F
S11306200F91FF90EF90DF90CF90BF90AF909F908D
S11306308F907F906F905F904F9008954F925F924C
S11306406F927F92AF92BF92CF92DF92EF92FF921E
S11306500F931F93CF93DF93CDB7DEB728970FB6D1
S1130660F894DEBF0FBECDBF6091BA047091BB0495
S1130670072E000C880B990B0E94C9205B016C01AA
S11306806091BC047091BD04072E000C880B990B7B
S11306900E94C92069837A838B839C8325E33AEF84
S11306A04EE85CE360912304709124048091250456
S11306B0909126040E94E2216D837E838F83988724
S11306C025E33AEF4EE85CE3609127047091280437
S11306D08091290490912A040E94E2212B013C017B
S11306E06091B8047091B904072E000C880B990B23
S11306F00E94C9209F938F937F936F93E980FA8020
S11307000B811C812D813E814F815885C301B2012B
S1130710D7DE0F900F900F900F90BC0180E090E017
S11307200E94C7202B013C012AE0298360E070E08D
S1130730CB01A30192010E94611F298121502983C9
S11307402111F7CF20E030E040E251E40E942E2056
S113075028960FB6F894DEBF0FBECDBFDF91CF91C0
S11307601F910F91FF90EF90DF90CF90BF90AF90CB
S11307707F906F905F904F900895CF92DF92EF92A9
S1130780FF920F931F93CF93DF93CDB7DEB72C97D0
S11307900FB6F894DEBF0FBECDBF67E374E0CE01A1
S11307A001960E9487198CE0FE013196AFE0B4E017
S11307B001900D928A95E1F787E394E00E94241C4E
S11307C00FE014E0F801C084D184E284F3846081F2
S11307D0718182819381A70196010E94D41F21EE29
S11307E03EE245E652E40E94E221609333047093B2
S11307F034048093350490933604F8016481758140
S113080086819781A70196010E94D41F21EE3EE2C2
S113081045E652E40E94E22160932F047093300471
S1130820809331049093320470DDB0DD00911B0499
S113083010911C0420911D0430911E04601771074F
S11308408207930709F4F0C0A1DD60931B04709341
S11308501C0480931D0490931E04809154028823E9
S113086091F18091330490913404A0913504B091B6
S113087036048093270490932804A0932904B0930A
S11308802A0480912F0490913004A0913104B091F6
S113089032048093230490932404A0932504B093FA
S11308A0260480912B0490912C04A0912D04B091E6
S11308B02E0480931F0490932004A0932104B093EA
S11308C022041092540287E394E00E947D1C2FE6D8
S11308D032E143E85AE30E94E22120912704309157
S11308E028044091290450912A040E94611F2BE797
S11308F034E14EE65FE30E94E2216B017C0129E2D0
S11309003CE54FE85DE360913304709134048091D9
S11309103504909136040E94E2219B01AC01C70189
S1130920B6010E94611F609327047093280480938A
S1130930290490932A0487E394E00E94851C2FE6FF
S113094032E143E85AE30E94E221209123043091EA
S1130950240440912504509126040E94611F2BE732
S113096034E14EE65FE30E94E2216B017C0129E25F
S11309703CE54FE85DE360912F0470913004809171
S11309803104909132040E94E2219B01AC01C70121
S1130990B6010E94611F6093230470932404809322
S11309A02504909326044ADE60932B0470932C0450
S11309B080932D0490932E0487E394E00E948D1C71
S11309C02FE632E143E85AE30E94E22120911F041A
S11309D03091200440912104509122040E94611F0F
S11309E02DEC3CEC4CEC5DE30E94E2216B017C01BC
S11309F026E636E646E65FE360912B0470912C040C
S1130A0080912D0490912E040E94E2219B01AC015F
S1130A10C701B6010E94611F60931F0470932004F4
S1130A20809321049093220460911F047091200408
S1130A3080912104909122040E949B20CB012C964A
S1130A400FB6F894DEBF0FBECDBFDF91CF911F91DB
S1130A500F91FF90EF90DF90CF9008950F931F9325
S1130A60CF93DF93EDE6F3E088E290E0928B818B05
S1130A70148A138A80E090E0A0EBB0E4858B968B17
S1130A80A78BB08F118E128E138E148E80E090E09F
S1130A90AAEFB3E4858F968FA78FB0A3ECE4F3E0BD
S1130AA08AE999E9A9E1BEE3858B968BA78BB08F80
S1130AB0118E128E138E148E46E656E666E67FE39A
S1130AC0458F568F678F70A3EBE2F3E0858B968B8F
S1130AD0A78BB08F118E128E138E148E80E090E04F
S1130AE0A0E8BFE3858F968FA78FB0A3A6E0B3E0FD
S1130AF08DE290E01F969C938E931E97E5EEF2E0B4
S1130B00978786870AE919E929E93FE355960D9302
S1130B101D932D933C93589759961D921D921D92A7
S1130B201C925C9740E050E060E871E45D964D9360
S1130B305D936D937C939097058B168B278B308FE9
S1130B40118E128E138E148E458F568F678F70A35D
S1130B50A2DC1CDC60930B0470930C0480930D04E2
S1130B6090930E04CDE6D3E011DC00910B041091B8
S1130B700C0420910D0430910E04DC01CB01801B88
S1130B80910BA20BB30B843F9140A105B10548F42E
S1130B90F4DD9093F0038093EF03188A9F878E8788
S1130BA0E3CF0E94951CDF91CF911F910F9108957F
S1130BB0E8E0F1E0908181E0892780831092ED03E1
S1130BC01092EC031092EB031092EA030895CF9372
S1130BD0DF938FE70E94A51EC3E0D4E088810E94C2
S1130BE0A51E89810E94A51E8A810E94A51E8B8153
S1130BF00E94A51EDF91CF9108950F931F93109229
S1130C00EB038091000183FF57C0639B58C054C01D
S1130C108091000183FF6FC08AC08091000183FD31
S1130C2089C0639947C08091000183FF9BC080E025
S1130C30A0C0EBEFF3E011821082138212821582BE
S1130C4014821782168280915302882359F09EDB06
S1130C5060930704709308048093090490930A0432
S1130C601092530293DB0091070410910804209121
S1130C70090430910A04AB01BC01401B510B620B07
S1130C80730B81E0423051056105710508F071C0B4
S1130C9080E06FC0EBEFF3E08FE090E0918380831E
S1130CA0138212821582148281EF9FEF97838683C9
S1130CB080E05FC080E05DC06399AACF38C0109225
S1130CC02102EBEFF3E08EE190E0918380831382C5
S1130CD01282158214828CEE9FEF97838683109282
S1130CE00704109208041092090410920A0481E087
S1130CF08093530296CF10922102EBEFF3E084E14C
S1130D0090E091838083138212821582148282EE92
S1130D109FEF978386831092070410920804109221
S1130D20090410920A0481E0809353027ACF6399F4
S1130D3074CF77CF81E080932102E5EFF3E028EDD3
S1130D403FEF318320831382128215821482109222
S1130D500704109208041092090410920A04809364
S1130D6053025FCF109221028091EE03811192CF42
S1130D7060CF1F910F9108952F923F924F925F92EF
S1130D806F927F928F929F92AF92BF92CF92DF9297
S1130D90EF92FF920F931F93CF93DF9300D01F9294
S1130DA0CDB7DEB7EDE6F3E083E393E3A3EDB0E480
S1130DB0858B968BA78BB08F8AE097EDA3EABCE373
S1130DC0818F928FA38FB48F80E090E0A0E2B1E492
S1130DD0858F968FA78FB0A380910202882309F490
S1130DE019C180915602882309F418C1C6DC8C010C
S1130DF0EDE6F3E09183808386859785801B910BD4
S1130E00853B91053CF08856914090937003809304
S1130E106F030FC08C342FEF92072CF09093700364
S1130E2080936F0306C088599E4F909370038093FC
S1130E306F0320906F0330907003B101032C000CFA
S1130E40880B990B0E94C9204B015C0120918603F9
S1130E503091870340918803509189030E94E221D5
S1130E6020917703309178034091790350917A036C
S1130E700E94611F6B017C01609377037093780378
S1130E808093790390937A0360917E0370917F033A
S1130E90072E000C880B990B0E94C92069837A8362
S1130EA08B839C832DEC3CEC4CEC5DE30E94E221B3
S1130EB02B013C01C701B6010E9496209B017723B8
S1130EC024F422273327261B370BB901330F880B51
S1130ED0990B0E94C920A30192010E94D7211816E0
S1130EE024F520E030E0A901C701B6010E94D72112
S1130EF018164CF440927703509278036092790369
S1130F0070927A0312C02DEC3CEC4CEC5DEB6981E1
S1130F107A818B819C810E94E22160937703709394
S1130F2078038093790390937A03C101992324F47D
S1130F3088279927821993090297E4F12091820363
S1130F40309183034091840350918503C501B4011A
S1130F500E94E2216B017C018091710390917203E4
S1130F60B801681B790B072E000C880B990B0E94A3
S1130F70C92020918A0330918B0340918C035091B6
S1130F808D030E94E2219B01AC01C701B6010E94BE
S1130F90601F209177033091780340917903509139
S1130FA07A030E94611F0E949620709374036093D9
S1130FB0730308C0EDE6F3E01286138614861586E3
S1130FC017821682EDE6F3E0808191819583848314
S1130FD08681978121893289AC01992324F444279D
S1130FE05527481B590B2417350754F4281739077C
S1130FF01CF03195219531093093740320937303C8
S113100080917303909174039093FA038093F9038E
S11310101092020280915602811104C01092FA03C8
S11310201092F9030F900F900F900F90DF91CF91D2
S11310301F910F91FF90EF90DF90CF90BF90AF90F2
S11310409F908F907F906F905F904F903F902F90E4
S113105008952F923F924F925F926F927F928F9258
S11310609F92AF92BF92CF92DF92EF92FF920F9333
S11310701F93CF93DF9300D01F92CDB7DEB780913B
S11310802102882309F457C00F2EFBEFCF2EF3E083
S1131090DF2EF02D0F2EF3E24F2EF2E05F2EF02D17
S11310A00F2EF3E02F2EF4E03F2EF02D0F2EFBEF4A
S11310B06F2EF3E07F2EF02DDA82C98205EF13E064
S11310C072011B821C82D8016D917D918D01F70103
S11310D081909190A190B1907F01072E000C880B14
S11310E0990B0E94C920A50194010E94E2214B01A1
S11310F05C012B813C81B901330F880B990B0E9451
S1131100C9209B01AC01C501B4010E94611F0E946A
S113111096207C836B8306151705A9F6A981BA81ED
S11311206D937C93F2E0CF0ED11C2CE0420E511C47
S1131130C214D30409F6E3E0F4E0ABEFB3E02D917D
S11311403C9147E1429FC001439F900D112429EF38
S113115030E0B9010E94B62260836091FD03709172
S1131160FE03469FC001479F900D1124B9010E94C0
S1131170B62261836091FF0370910004469FC00111
S1131180479F900D1124B9010E94B6226283609199
S1131190010470910204469FC001479F900D1124E1
S11311A0B9010E94B622638312DD0F900F900F9055
S11311B00F90DF91CF911F910F91FF90EF90DF90EF
S11311C0CF90BF90AF909F908F907F906F905F90E3
S11311D04F903F902F9008952F923F924F925F929D
S11311E06F927F928F929F92AF92BF92CF92DF9233
S11311F0EF92FF920F931F93CF93DF931C018B0108
S11312007A01EDE6F3E083E393E3A3EDB0E4858BA9
S1131210968BA78BB08F8AE097EDA3EABCE3818F0E
S1131220928FA38FB48F80E090E0A0E2B1E4858F29
S1131230968FA78FB0A381E08093210286EC92E081
S11312400E94DE000E949620AB01772324F44427F9
S11312505527461B570BEA015093F4034093F303BD
S113126030925B0320925A0320910102222309F455
S113127055C11092EB031092EA0350934D0340932F
S11312804C0310920102483E83E058070CF4EAC074
S1131290241A350A0F2EFCE4CF2EF3E0DF2EF02DB6
S11312A0F60133822282B101032C000C880B990BC6
S11312B00E94C9202B013C01F601218D328D438D02
S11312C0548D0E94E221F60122853385448555859B
S11312D00E94611F4B015C01F6016287738784875A
S11312E095878089882319F0D583C483108AC50122
S11312F0B4010E9496209B01772324F422273327EC
S1131300261B370B2B3031055CF120E030E0A901BE
S1131310C501B4010E94D72118166CF480E090E056
S1131320A0E2B1E48093560390935703A09358032B
S1131330B093590315C020E030E0A901C501B40100
S11313400E942720882364F480E090E0A0E2B1ECBE
S11313508093560390935703A0935803B093590373
S113136012141304BCF50F2EFCE4CF2EF3E0DF2E91
S1131370F02DF601258936894789508DC301B201C4
S11313800E94E221F60122853385448555850E9419
S1131390611F4B015C01F60184819581BE01681BCC
S11313A0790B072E000C880B990B0E94C920F601BB
S11313B0258D368D478D50A10E94E2219B01AC0101
S11313C0C501B4010E94601F0E949620F601778334
S11313D0668304C01092530310925203ECE4F3E0CA
S11313E0D583C483868197819C01992324F4222781
S11313F03327281B390BE216F30678F4181619065E
S11314002CF4F0925303E092520307C0F194E19458
S1131410F108F0925303E0925203809152039091A9
S1131420530343968797A8F48091ED03882339F0FA
S113143084E190E090935303809352030AC0809117
S1131440EC03882331F08CEE9FEF90935303809349
S1131450520380915203909153039093F603809327
S1131460F50335C0809122028823C9F0BA01550FD3
S1131470880B990B0E94C9202DEC3CEC4CEC5DE3ED
S11314800E94E22120E030E040E752E40E94611F24
S11314900E9496207093F6036093F50318C0BA0176
S11314A0550F880B990B0E94C9202AE037ED43E2BF
S11314B05DE30E94E22120E030E040E752E40E9434
S11314C0611F0E9496207093F6036093F503023027
S11314D0110551F481E08093ED031092EC03109216
S11314E0EA031092EB031AC003301105B9F4E5EFD7
S11314F0F3E08081918199231CF491958195910960
S1131500919581959109918380831092ED0381E0F7
S11315108093EC031092EB031092EA038091220271
S1131520882349F0E5EFF3E08CEE9FEF9383828309
S11315301582148205C01092F8031092F7031CDC84
S1131540DF91CF911F910F91FF90EF90DF90CF909B
S1131550BF90AF909F908F907F906F905F904F90CF
S11315603F902F9008950E94A11E853638F09091E7
S11315700A02903561F09A30D9F504C090910A02BC
S11315809A3081F5811131C010922A032EC086341D
S113159079F41092290390912A03911120C01AC062
S11315A08AE080930A0281E080932A0390E020C0BD
S11315B0853640F080E580930A0281E08093290318
S11315C09AE516C090912A03911109C090912903BC
S11315D0911105C09AE0980F90930A0209C09AE00D
S11315E0980F06C0903571F7D2CF853658F3D8CF0F
S11315F0892F08954F925F926F927F92AF92BF921C
S1131600CF92DF92EF92FF920F931F93CF93DF93CA
S11316100F2EFDEAEF2EF2E0FF2EF02D00ED13E089
S1131620C0E0D0E0CC24C394D12C86B190E00C2E41
S113163002C0959587950A94E2F780FF10C0F801DF
S1131640D182C0822091E903C6010C2E02C0880F0A
S1131650991F0A94E2F7822B8093E90303C0F801EF
S113166011821082F701819191917F01F801A1907B
S1131670B1908F018A9DB0018B9D700D9A9D700D64
S11316801124072E000C880B990B0E94C92020916D
S1131690E4033091E5034091E6035091E7030E948F
S11316A0611F2B013C016093E4037093E503809375
S11316B0E6039093E703B501BB0C880B990B0E94DA
S11316C0C9202091E0033091E1034091E20350915D
S11316D0E3030E94611F6093E0037093E10380932E
S11316E0E2039093E3032196C830D10509F09DCF1E
S11316F09B01AC01C301B2010E942E200E949B20D9
S11317006093E8031092E4031092E5031092E60359
S11317101092E7031092E0031092E1031092E203A7
S11317201092E303809109028A3029F46A3081F52A
S1131730109228032DC08035F1F4603581F41092A5
S11317402703809128038823F1F01FC01092E80337
S11317508AE08093090281E08093280316C0611116
S11317600AC08AE58093E80380E58093090281E05A
S1131770809327030AC080912803811106C08091B9
S11317802703811102C0609309028091E80303C01A
S11317906111F1CFDBCFDF91CF911F910F91FF90BA
S11317A0EF90DF90CF90BF90AF907F906F905F905D
S11317B04F9008954F925F926F927F928F929F9273
S11317C0AF92BF92EF92FF920F931F93CF93DF9349
S11317D080911603882359F0C6DE882341F0C3DEC6
S11317E0E6E0F3E090E095838483108AC5C080919D
S11317F00402882309F4C0C080915502882309F4A7
S1131800BFC0B1DEE82EF12CC6E0D3E0F982E88255
S11318100E851F850E191F091B830A83B801012E2B
S1131820000C880B990B0E94C9204B015C01298D87
S11318303A8D4B8D5C8D0E94E2212A853B854C8537
S11318405D850E94611F2B013C016A877B878C8721
S11318509D870E9496209B01772324F42227332717
S1131860261B370B263031055CF120E030E0A9015E
S1131870C301B2010E94D72118166CF480E090E0F5
S1131880A0EAB0E48093100390931103A093120391
S1131890B093130315C020E030E0A901C301B201E5
S11318A00E942720882364F480E090E0A0EAB0EC52
S11318B08093100390931103A0931203B093130326
S11318C0012B49F4E6E0F3E01286138614861586AC
S11318D0178216822DC0C6E0D3E02D893E894F8938
S11318E0588DC501B4010E94E2212A853B854C85AF
S11318F05D850E94611F4B015C018C819D81B70154
S1131900681B790B072E000C880B990B0E94C920C9
S11319102D8D3E8D4F8D58A10E94E2219B01AC017B
S1131920C501B4010E94601F0E9496207F836E83CC
S1131930E6E0F3E0808191819583848386819781B9
S11319409C01992324F422273327281B390B2135A2
S1131950310584F0181619063CF480E590E0909364
S11319600D0380930C0306C080EB9FEF90930D034F
S113197080930C031092030280915502811104C0DC
S113198010920D0310920C03DF91CF911F910F91D0
S1131990FF90EF90BF90AF909F908F907F906F904B
S11319A05F904F9008954F925F926F927F928F92C3
S11319B09F92AF92BF92EF92FF920F931F93CF9398
S11319C0DF938091F502882351F014DE882339F0E7
S11319D011DEE5EEF2E090E095838483108A809135
S11319E00402882309F4C0C080915502882309F4B5
S11319F0BFC000DEE82EF12CC5EED2E0F982E88209
S1131A000E851F850E191F091B830A83B801012E39
S1131A10000C880B990B0E94C9204B015C01298D95
S1131A203A8D4B8D5C8D0E94E2212A853B854C8545
S1131A305D850E94611F2B013C016A877B878C872F
S1131A409D870E9496209B01772324F42227332725
S1131A50261B370B263031055CF120E030E0A9016C
S1131A60C301B2010E94D72118166CF480E090E003
S1131A70A0EAB0E48093EF029093F002A093F10205
S1131A80B093F20215C020E030E0A901C301B20115
S1131A900E942720882364F480E090E0A0EAB0EC60
S1131AA08093EF029093F002A093F102B093F202BC
S1131AB0012B49F4E5EEF2E01286138614861586AE
S1131AC0178216822DC0C5EED2E02D893E894F893A
S1131AD0588DC501B4010E94E2212A853B854C85BD
S1131AE05D850E94611F4B015C018C819D81B70162
S1131AF0681B790B072E000C880B990B0E94C920D8
S1131B002D8D3E8D4F8D58A10E94E2219B01AC0189
S1131B10C501B4010E94601F0E9496207F836E83DA
S1131B20E5EEF2E0808191819583848386819781BB
S1131B309C01992324F422273327281B390B2135B0
S1131B40310584F0181619063CF480E590E0909372
S1131B50EC028093EB0206C080EB9FEF9093EC02C3
S1131B608093EB021092040280915502811104C00B
S1131B701092EC021092EB02DF91CF911F910F9122
S1131B80FF90EF90BF90AF909F908F907F906F9059
S1131B905F904F90089580910C02811108C080914C
S1131BA00B02823071F0833071F4A1E013C08130F4
S1131BB061F480910B02823051F0833051F4A3E040
S1131BC009C0A0E007C0A4E005C0A4E003C0A2E0EF
S1131BD001C0A4E0B0E0AA0FBB1FAA0FBB1FA35F04
S1131BE0BD4FEBEFF3E063E074E04D912081318170
S1131BF04203C001439F900D112481939193E617F2
S1131C00F70799F70895CF93DF93EC01109221021F
S1131C10D1DDC9DE80910B028230F1F480910C0396
S1131C2090910D03EBEFF3E09C012C0F3D1F3183EA
S1131C3020839E01281B390B338322838091EB027E
S1131C409091EC029E01280F391F35832483C81B11
S1131C50D90BD783C6831CC080910C0390910D03CC
S1131C60EBEFF3E09E01281B390B318320838C0FAB
S1131C709D1F938382838091EB029091EC029E01DD
S1131C80281B390B35832483C80FD91FD783C683F8
S1131C9082DFDF91CF910895CF92DF92EF92FF928E
S1131CA00F931F93E6E0F3E00F2EC12CD12CF0E844
S1131CB0EF2EFFE3FF2EF02DC58AD68AE78AF08E39
S1131CC00AE017ED23EA3CE3018F128F238F348F50
S1131CD040E050E060EC70E4458F568F678F70A34E
S1131CE0E5EEF2E0C58AD68AE78AF08E018F128F7C
S1131CF0238F348F458F568F678F70A321E02093F5
S1131D000C0222E020930B027EDF1F910F91FF90C3
S1131D10EF90DF90CF9008952F923F924F925F9271
S1131D206F927F928F929F92AF92BF92CF92DF92E7
S1131D30EF92FF920F931F93CF93DF931C018B01BC
S1131D407A01E6E0F3E00F2E812C912CF0E8AF2E1F
S1131D50FFE3BF2EF02D858A968AA78AB08E4AE0CB
S1131D6057ED63EA7CE3418F528F638F748F80E079
S1131D7090E0A0E4B1E4858F968FA78FB0A3E5EE41
S1131D80F2E0858A968AA78AB08E418F528F638F3C
S1131D90748F858F968FA78FB0A38EEB92E00E94ED
S1131DA0DE000E9496209B01772324F42227332708
S1131DB0261B370BE9013093F2032093F103309291
S1131DC03A032092390380910002882309F40AC15E
S1131DD010920002283582E038070CF4ADC00F2EB3
S1131DE0FBE2CF2EF3E0DF2EF02DF60131832083CA
S1131DF0221A330A33822282B101032C000C880B8D
S1131E00990B0E94C9202B013C01F601218D328DD2
S1131E10438D548D0E94E221F60122853385448549
S1131E2055850E94611F4B015C01F601628773872F
S1131E30848795878089882319F0D583C483108A81
S1131E40C501B4010E9496209B01772324F4222724
S1131E503327261B370B2B3031055CF120E030E0B3
S1131E60A901C501B4010E94D72118166CF480E0C1
S1131E7090E0A0E2B1E48093350390933603A093FD
S1131E803703B093380315C020E030E0A901C50141
S1131E90B4010E942720882364F480E090E0A0E24B
S1131EA0B1EC8093350390933603A0933703B0933A
S1131EB0380312141304BCF50F2EFBE2CF2EF3E00B
S1131EC0DF2EF02DF601258936894789508DC3010F
S1131ED0B2010E94E221F6012285338544855585AD
S1131EE00E94611F4B015C01F60184819581BE0152
S1131EF0681B790B072E000C880B990B0E94C920D4
S1131F00F601258D368D478D50A10E94E2219B015B
S1131F10AC01C501B4010E94601F0E949620F60125
S1131F207783668304C01092320310923103D093F6
S1131F303003C0932F0318C0B901330F880B990BDA
S1131F400E94C9202AE939E949E15EE30E94E221BD
S1131F5020E030E040E752E40E94611F0E94962096
S1131F607093320360933103809131039091320373
S1131F7099231CF49195819591098E159F0520F064
S1131F80F0923203E0923103809131039091320355
S1131F904396879730F484E190E0909332038093E2
S1131FA0310381E080930C020230110561F48093C7
S1131FB0EB031092EA031092ED031092EC0382E01B
S1131FC080930B020FC00330110561F481E080930C
S1131FD0EA031092EB031092ED031092EC0383E0FA
S1131FE080930B0280913103909132030CDEDF91D8
S1131FF0CF911F910F91FF90EF90DF90CF90BF9002
S1132000AF909F908F907F906F905F904F903F9094
S11320102F9008950F931F9381E080930C0283E027
S113202080930B02E6E0F3E006E616E626EE3FE3D5
S1132030058B168B278B308F4AE057ED63EA7CE3E0
S1132040418F528F638F748F80E090E0A0ECB0E4F6
S1132050858F968FA78FB0A3E5EEF2E0058B168BE4
S1132060278B308F418F528F638F748F858F968F1C
S1132070A78FB0A380E090E0C6DD1F910F91089573
S1132080CF938091E4028111B5C08091090186FD4E
S11320906DC08091D9029091DA02059709F066C06B
S11320A054C08091D9029091DA020697F9F4809194
S11320B00802811160C01AC08091D9029091DA029D
S11320C0059731F08091D9029091DA02069731F4A4
S11320D081E08093E20287E70E944B1F8091E40233
S11320E0882321F08091E302811189C08091070245
S11320F0882399F08091090186FD0FC08091090120
S113210082FD0BC080910802811107C08091D90221
S11321109091DA02069709F443C08091090182FF85
S113212062C08091D9029091DA02069709F05BC0EF
S113213080910802811157C039C01092E30281E0F6
S11321408093DF021092DE025AC087E592E00E947B
S1132150DF1D8FE60E944B1F81E08093E402809391
S1132160E0021092D5021092D60244C08091090177
S113217086FF97CFBBCF8FE60E944B1F81E08093F1
S1132180E4021092E0028093DF028093D4028093F1
S1132190D5028093D6021092D2021092D3022AC0A2
S11321A08BE60E944B1F10920702B7CFC1E0C09389
S11321B0D202C093D3021092D0021092D1028AE6C6
S11321C00E944B1FC093E302C093E202C093E40257
S11321D0C093DE0287E090E09093060280930502AC
S11321E01092DF020CC08091D9029091DA02069716
S11321F031F4A3CF8091090186FD5ECF73CFCF91D7
S11322000895CF93DF938091D9029091DA020597D4
S113221039F08091D9029091DA02069709F04BC007
S11322208091050290910602089709F044C064C4A5
S11322308091D402811109C08091090184FF61C495
S11322408091C00481115DC465C48091D302882348
S113225081F18091D202882361F18091090184FF88
S113226004C08091C104882321F08091C204882392
S113227059F086E090E09093DA028093D9021092AC
S11322800802FEDEC7DE17C08091090184FD50C438
S113229081E0809308021092CF02F2DEBBDE0BC015
S11322A081E080930802ECDEB5DE05C0E9DEB2DE33
S11322B002C0E6DEAFDE8091D8028111EAC520912A
S11322C0D9023091DA02232B09F0DDC59091BF04C5
S11322D0911133C49091C00491112FC4D4C5789442
S11322E0E8E6F0E0808181608083EBE6F0E08081C5
S11322F0806180832EC12091C304211108C02091E4
S1132300C204211104C02091C104222369F1811166
S11323102EC048EC50E062E070E080E99AE10E944F
S1132320EC0887E090E0909306028093050286EC27
S113233092E00E94DE000E9496209B01772324F401
S113234022273327261B370B283C39410CF401C1C3
S11323507894E8E6F0E0808181608083EBE6F0E049
S1132360808180618083F5C0882309F47FC08091D7
S1132370D70281113CC081E090E09093DA0280930F
S1132380D90210922202EDE6F3E080E090E0A0E0B2
S1132390B0E4858B968BA78BB08F118E128E138E23
S11323A0148E80E090E0A0EFB1E4858F968FA78F24
S11323B0B0A38CE692E00E94DF1D87E090E090934A
S11323C0060280930502EBE6F0E080818F7E808335
S11323D07894E8E6F0E0808184608083EDE6F0E0C4
S11323E080818068808388E290E056DCB2C02091CE
S11323F0D9023091DA022130310509F03BC5209130
S11324000502309106022730310509F033C5809169
S1132410BF04811105C08091C004882309F42AC532
S113242085E090E09093DA028093D9020E94BD0384
S113243090937C0380937B0388E60E944B1F88E083
S113244090E09093060280930502EDE6F0E080812F
S11324508F7780830E94D805DDDD1092C702109229
S1132460C6021092BF021092BE0273C02091D9021C
S11324703091DA022130310509F06BC08091D70226
S1132480882309F466C091110DC08091C3048111A1
S113249009C08091C204811105C08091C1048823C0
S11324A009F457C08091050290910602079709F03C
S11324B050C079C381E08093D4028093D502809385
S11324C0D6028093D7028093D8028093080241C039
S11324D08091C3048823B1F081E08093D202809379
S11324E0D3028093D4028093D5028093D602809342
S11324F0D7028093D8028093E2028093E40280930F
S1132500DE0231C08091C204882391F081E080937F
S1132510D2028093D3028093D4028093D502809315
S1132520D6028093D7028093D8021092080211C079
S11325308091C104882369F081E08093D402809360
S1132540D5028093D6028093D7028093D8028093D9
S113255008028091E402882309F4A8C48091E2026D
S1132560882309F4A3C48091E002882309F440C3BA
S11325708091D602811113C08091D9029091DA0220
S11325800597F1F43BC37894E8E6F0E08081846039
S11325908083EDE6F0E080818068808311C08091C3
S11325A0D50281110DC08091D9029091DA0205976C
S11325B039F48091050290910602079709F456C3F5
S11325C08091D9029091DA020297D9F480910502A0
S11325D0909106020897A9F465C381E30E944B1FFA
S11325E01092E1020E94301F8093CE02873649F494
S11325F081E08093DD021092E00280E28093CE02BB
S113260005C08091DD02882309F449C08091D60277
S1132610882309F444C08091D502811145C0EDE6B8
S1132620F3E080E090E0A0E0B0E4858B968BA78B8C
S1132630B08F118E128E138E148E80E090E0A0EF76
S1132640B1E4858F968FA78FB0A344E650E063E092
S113265070E085E897E060DB87E090E09093060205
S1132660809305028EEB92E00E94DE000E94962089
S11326709B01772324F422273327261B370B203B87
S113268034400CF475C07894E8E6F0E0808184600E
S11326908083EDE6F0E080818068808369C080916A
S11326A0D502882309F427C380910502909106027C
S11326B0079709F020C38091D9029091DA0202971A
S11326C009F019C3F6C28091D402811144C0EDE629
S11326D0F3E080E090E0A0E0B0E4858B968BA78BDC
S11326E0B08F118E128E138E148E80E090E0A0EFC6
S11326F0B1E4858F968FA78FB0A344E650E062E0E3
S113270070E084E398E00E94EC0887E090E0909306
S113271006028093050286EC92E00E94DE000E948D
S113272096209B01772324F422273327261B370B7B
S11327302C363740ECF07894E8E6F0E08081816054
S11327408083EBE6F0E080818061808311C080911A
S1132750D402882369F080910502909106020797BC
S113276039F48091D9029091DA02059709F4C8C22C
S11327708091DF02882309F447C08091D30281113C
S113278047C08DE792E00E94DF1DEDE6F3E080E0B4
S113279090E0A0E0B0E4858B968BA78BB08F118E70
S11327A0128E138E148E80E090E0A0EFB1E4858F3A
S11327B0968FA78FB0A387E090E090930602809352
S11327C0050244E650E062E070E08EE997E0A4DAA6
S11327D08EEB92E00E94DE000E9496209B017723FC
S11327E024F422273327261B370B203B34400CF1DB
S11327F07894E8E6F0E0808184608083EDE6F0E0A0
S113280080818068808315C08091D302882389F0F9
S11328108091D20281110DC08091D9029091DA0287
S1132820069739F48091050290910602079709F4FE
S113283089C28091D9029091DA02039719F58091A7
S11328400502909106020897E9F498C282E30E9477
S11328504B1F1092C7021092C6021092BF02109230
S1132860BE021092E1020E94301F8093CE0287368E
S113287049F481E08093DC021092DE0280E28093CE
S1132880CE0205C08091DC02882309F448C08091FF
S1132890D302882309F443C08091D202811143C03A
S11328A0EDE6F3E080E090E0A0E0B0E4858B968B69
S11328B0A78BB08F118E128E138E148E80E090E051
S11328C0A0EFB1E4858F968FA78FB0A344E650E0C4
S11328D063E070E08EE997E01FDA87E090E0909380
S11328E00602809305028EEB92E00E94DE000E94B5
S11328F096209B01772324F422273327261B370BAA
S1132900203B3440ECF07894E8E6F0E08081846089
S11329108083EDE6F0E080818068808311C080913F
S1132920D202882369F080910502909106020797EC
S113293039F48091D9029091DA02039709F42BC2F9
S11329408091DE02882309F450C08091D102811164
S113295050C0CDE6D3E080E090E0A0E0B0E48D8B01
S11329609E8BAF8BB88F198E1A8E1B8E1C8E80E0B7
S113297090E0A0EFB1E48D8F9E8FAF8FB8A389E86C
S113298092E00E94DF1D85EB90E09F878E8746E9E9
S113299050E062E070E08EE194E1BED987E090E01F
S11329A090930602809305028EEB92E00E94DE0073
S11329B00E9496209B01772324F422273327261B89
S11329C0370B203A3F400CF43DC07894E8E6F0E041
S11329D0808184608083EDE6F0E08081806880837C
S11329E085E992E00E94DF1D2DC08091D1028823E9
S11329F049F18091D9029091DA02069709F04EC20A
S1132A008091050290910602079709F047C2E6C13A
S1132A1080910502909106020897A1F4FDC180916E
S1132A20E1028111FFC10E94301F8093CE028736DC
S1132A3049F481E08093DC021092DE0280E280930C
S1132A40CE0205C08091DC02882309F441C0809144
S1132A50D1028823E9F18091D00281113EC0EDE6D4
S1132A60F3E080E090E0A0E0B0E4858B968BA78B48
S1132A70B08F118E128E138E148E80E090E0A0EF32
S1132A80B1E4858F968FA78FB0A387E090E09093F1
S1132A900602809305028EEB92E00E94DE000E9403
S1132AA096209B01772324F422273327261B370BF8
S1132AB0203A3F400CF4FAC17894E8E6F0E08081D3
S1132AC084608083EDE6F0E0808180688083EEC1DD
S1132AD08091D002882309F4E9C180910502909184
S1132AE00602079709F0E2C18091D9029091DA02B7
S1132AF0049709F0DBC19CC18091D502811198CB68
S1132B00A4CB81E08093E0021092D5021092D60209
S1132B10B7DAD1CB85E090E09093DA028093D902C2
S1132B2081E08093DB028093E4028093E202C3CBD2
S1132B308091C1048111B4CBB9CBEDE6F3E080E020
S1132B4090E0A0E0B0E4858B968BA78BB08F118EBC
S1132B50128E138E148E80E090E0A0EFB1E4858F86
S1132B60968FA78FB0A348EC50E062E070E088EF46
S1132B7091E10E94EC0887E090E090930602809334
S1132B80050286EC92E00E94DE000E9496209B01E2
S1132B90772324F422273327261B370B2033314194
S1132BA00CF09DCBD6CCEDE6F0E080818F7780836E
S1132BB088E60E944B1F1092220286E090E09093D8
S1132BC0DA028093D90288E090E090930602809321
S1132BD005020E94D8051092C7021092C6021092F4
S1132BE0BF021092BE028091C404811163CC70CCE8
S1132BF08091D602882309F4E3CCD1CC87E090E01D
S1132C009093060280930502EDE6F3E080E090E005
S1132C10A0E0B0E4858B968BA78BB08F118E128EBB
S1132C20138E148E80E090E0A0EFB1E4858F968F30
S1132C30A78FB0A344E650E062E070E08EE997E02D
S1132C406BD882EA92E0BBD78EEB92E00E94DE0062
S1132C500E9496209B01772324F422273327261BE6
S1132C60370B203436400CF08ECCAACCEDE6F0E0E5
S1132C7080818F7780830E94D80582E090E09093D2
S1132C80DA028093D9021092C7021092C6021092FF
S1132C90BF021092BE0288E090E0909306028093F7
S1132CA005028ECCB7D98091E102882309F49ACC2D
S1132CB094CCEDE6F0E080818F77808385E090E02E
S1132CC09093DA028093D9020E94D8051092C70229
S1132CD01092C6021092BF021092BE0288E090E0E9
S1132CE090930602809305021092E4021092E2028D
S1132CF01092DD023DCD8091DB028111E4CC27CD21
S1132D001092DB02EBE6F0E080818F7E80830E94EC
S1132D10D80586E090E09093DA028093D90288E0A7
S1132D2090E090930602809305021092C7021092DD
S1132D30C6021092BF021092BE021092E4021092D8
S1132D40E20216CD83E090E09093DA028093D902F8
S1132D50EDE6F0E080818F7780831092C7021092B5
S1132D60C6021092BF021092BE0288E090E09093D7
S1132D700602809305020E94D8055BCDE5EFF3E0DF
S1132D80118210821382128245D98091E102882334
S1132D9009F469CD5BCD3ED9EDE6F0E080818F7713
S1132DA080830E94D8051092C7021092C602109226
S1132DB0BF021092BE0286E090E09093DA02809304
S1132DC0D90288E090E09093060280930502109265
S1132DD0E4021092E2021092DC02B2CDEDE6F0E0E1
S1132DE080818F7780830E94D8051092C702109249
S1132DF0C6021092BF021092BE0288E090E0909347
S1132E000602809305021092DE0284E090E0909323
S1132E10DA028093D90216CEFDD80E94FD058111F5
S1132E20FECD01CE83E30E944B1F1092E102FBCD45
S1132E30EDE6F0E080818F7780830E94D8051092C0
S1132E40C7021092C6021092BF021092BE0286E020
S1132E5090E09093DA028093D90288E090E0909316
S1132E600602809305021092E4021092E20210928C
S1132E70DC021CC02091D9023091DA0221303105E4
S1132E8009F067CB00CB9091C404992309F433CAA9
S1132E9040CA9091C40491116ACA2DCA8091D90282
S1132EA09091DA02049709F0CDCDB2CDDF91CF91A4
S1132EB008951F920F920FB60F9211240BB60F9222
S1132EC02F933F934F935F936F937F938F939F932E
S1132ED0AF93BF93EF93FF938091D802811106C003
S1132EE081E08093D8028093BE0422C08091D402F2
S1132EF0811108C081E08093D4028093BE040E94B3
S1132F00D80516C08091CF02811112C081E0809350
S1132F10CF020E94D805EBE6F0E080818F7E8083AB
S1132F201092C7021092C6021092BF021092BE0203
S1132F30FF91EF91BF91AF919F918F917F916F918D
S1132F405F914F913F912F910F900BBE0F900FBE49
S1132F500F901F9018951F920F920FB60F92112485
S1132F600BB60F922F933F934F935F936F937F937F
S1132F708F939F93AF93BF93EF93FF938091D70267
S1132F80811106C081E08093D7020E94D80541C018
S1132F908091D602811108C081E08093E102809380
S1132FA0D6020E94D80535C08091D502811106C091
S1132FB081E08093D5020E94D8052BC08091D30272
S1132FC0811108C081E08093E1028093D3020E94C2
S1132FD0D8051FC08091D202811106C081E0809380
S1132FE0D2020E94D80515C08091D102811108C077
S1132FF081E08093E1028093D1020E94D80509C048
S11330008091D002811105C081E08093D0020E949A
S1133010D805FF91EF91BF91AF919F918F917F91CF
S11330206F915F914F913F912F910F900BBE0F9035
S11330300FBE0F901F901895AAE0B1E08C918F7B82
S11330408C938C918F7E8C93EBE0F1E08081806493
S113305080838081806180838C918B7F8C9380813D
S11330608B7F8083E1E0F1E08081877F80836B98B0
S1133070E2E0F1E0808188608083739AE7E0F1E028
S1133080808181608083E8E0F1E080818E7F8083AD
S113309087E690E066D589E190E03AD689E190E050
S11330A0C6D60E942E057894ACD80E942908FCCF7D
S11330B087E394E03DD0EFEAF3E01086118681E0E7
S11330C0808BEEE8F3E010861186808BEDE6F3E06A
S11330D010861186808BECE4F3E010861186808BD9
S11330E0EBE2F3E010861186808BE6E0F3E01086D5
S11330F01186808BE5EEF2E010861186808B1092AB
S1133100C7021092C60286EC92E00E94CB0086ECC5
S113311092E00E94D6001092BF021092BE028EEB83
S113312092E00E94CB008EEB92E00C94D6000895BE
S1133130FC0114AE15AE16AE17AEDC01A05CBF4F99
S11331401D921D921D921C92139714961D921D920E
S11331501D921C921397D4961C92D0971D921D9287
S11331601D921C92139714961D921D921D921C92EF
S1133170139714961D921D921D921C92139710AAD8
S113318011AA12AA13AA14AA15AA16AA17AA10AE4B
S113319011AE12AE13AE94961D921D921D921C9206
S11331A0139718974FE35EE16AEF7BE34D935D93CA
S11331B06D937C931397E059FF4F80E49AEDAFE74A
S11331C0B8E380839183A283B38308952FEF82E5CC
S11331D097E0215080409040E1F700C0000080ED6E
S11331E0CED38BE639D480E037D4F2D380EDC7D385
S11331F089E132D489E130D4EBD380EDC0D38AE1C4
S11332002BD480E029D4E4D380EDB9D38BE124D44A
S113321080E022D4DDD380EDB2D388E31DD481E0F5
S11332201BD4D6D380EDABD38CE116D480E014D478
S1133230CFC30895CF93C62F80EDD3D38C2F0CD456
S113324081EDC4D3CF910895AF92BF92CF92DF9214
S1133250EF92FF920F931F93CF93DF938C01EB01B7
S11332606BE3CE01E7DF0AD4A82E08D4B82E06D427
S1133270C82E04D4E82E02D4D82E0BD4F82E6B2DED
S113328070E07A29072E000C880B990B82D7FE0177
S1133290E85BFF4F208131814281538111D66883DD
S11332A079838A839B836E2D70E07C29072E000C22
S11332B0880B990B6ED7FE01E45BFF4F20813181AF
S11332C042815381FDD56C837D838E839F836F2DD3
S11332D070E07D29072E000C880B990B5AD768875C
S11332E079878A879B8774D38CE0FE01D80101908B
S11332F00D928A95E1F7C801DF91CF911F910F914B
S1133300FF90EF90DF90CF90BF90AF900895AF9271
S1133310BF92CF92DF92EF92FF920F931F93CF93BE
S1133320DF93CDB7DEB72C970FB6F894DEBF0FBE90
S1133330CDBF5C018B01CE01019686DFF801E05917
S1133340FF4FC080D180E280F380A7019601F8018D
S113335060817181828193810E94E221F801608FF2
S1133360718F828F938FA701960164817581868105
S113337097810E94E221F801648F758F868F978F61
S1133380A701960160857185828593850E94E2215B
S1133390F80160A371A382A393A38CE07896D5016E
S11333A001900D928A95E1F7C5012C960FB6F89419
S11333B0DEBF0FBECDBFDF91CF911F910F91FF9064
S11333C0EF90DF90CF90BF90AF900895FF920F934E
S11333D01F93CF93DF938C01EB0163E4CE012ADFCB
S11333E04DD3F82E4BD36F2D70E0762F6627682BC4
S11333F0072E000C880B990BCCD66C877D878E87A3
S11334009F873CD3F82E3AD36F2D70E0762F662732
S1133410682B072E000C880B990BBBD6688B798B15
S11334208A8B9B8B2BD3F82E34D36F2D70E0762FA1
S11334306627682B072E000C880B990BAAD66C8B79
S11334407D8B8E8B9F8BC4D28CE0FE013C96D80181
S113345001900D928A95E1F7C801DF91CF911F91F8
S11334600F91FF900895CF92DF92EF92FF921F93F6
S1133470CF93DF93EC01162F662309F43BC0FC01C4
S1133480E858FF4F8081811103C062E3CE0151D01F
S1133490612F70E080E090E07CD66B017C019B01A1
S11334A0AC01FE01EC5AFF4F6081718182819381EE
S11334B089D768AB79AB8AAB9BABA7019601FE01B8
S11334C0E85AFF4F60817181828193817BD76CAB15
S11334D07DAB8EAB9FABA7019601FE01E45AFF4F73
S11334E060817181828193816DD768AF79AF8AAF32
S11334F09BAF0CC018AA19AA1AAA1BAA1CAA1DAA17
S11335001EAA1FAA18AE19AE1AAE1BAECC58DF4FB6
S1133510612F70E080E090E03AD6688379838A83F3
S11335209B83DF91CF911F91FF90EF90DF90CF901D
S113353008952F923F924F925F926F927F928F9253
S11335409F92AF92BF92CF92DF92EF92FF920F932E
S11335501F93CF93DF93CDB7DEB7A4970FB6F8943C
S1133560DEBF0FBECDBF1C01062FFC01E858FF4F84
S113357081E08083662309F487C010E0198E1A8ED7
S11335801B8E1C8E1D8A1E8A1F8A188E1D861E86FF
S11335901F86188A19A21AA21BA21CA21D8E1E8E97
S11335A01F8E18A2198A1A8A1B8A1C8AB101CE019D
S11335B001960CDFF1014484558466847784A30169
S11335C0920169897A898B899C897BD4698B7A8BEE
S11335D08B8B9C8BF10180889188A288B388A5018C
S11335E094016D8D7E8D8F8D98A16BD46D8F7E8FA0
S11335F08F8F98A3F101C488D588E688F788A7013E
S1133600960169A17AA18BA19CA15BD469A37AA339
S11336108BA39CA3A3019201C301B201D3D69B0146
S1133620AC016D857E858F8598894BD46D877E87A7
S11336308F87988BA5019401C501B401C3D69B0162
S1133640AC016D897E898F89988D3BD46D8B7E8B7F
S11336508F8B988FA7019601C701B601B3D69B0142
S1133660AC01698D7A8D8B8D9C8D2BD4698F7A8F6B
S11336708B8F9C8F8FE19EE40197F1F700C00000CF
S11336801F5F011393CF18C0198E1A8E1B8E1C8EC8
S11336901D8A1E8A1F8A188E1D861E861F86188AFA
S11336A019A21AA21BA21CA21D8E1E8E1F8E18A266
S11336B0198A1A8A1B8A1C8A602F70E080E090E0C5
S11336C068D54B015C019B01AC0169897A898B89BE
S11336D09C89C4D46B017C01F10164AF75AF86AFE2
S11336E097AFA50194016D8D7E8D8F8D98A1B6D471
S11336F02B013C01F101E05CFF4F60837183828305
S11337009383A501940169A17AA18BA19CA1A6D45C
S11337104B015C01F101EC5BFF4F60837183828399
S1133720938320E030E048E452E46D857E858F8504
S1133730988994D4698B7A8B8B8B9C8B20E030E0B6
S113374048E452E46D857E858F85988987D46D879A
S11337507E878F87988BA7019601C701B60132D661
S11337609B01AC016D857E858F859889A9D397D6F9
S1133770F101EC5AFF4F608371838283938320E0CD
S113378030E048E452E46D897E898F89988D66D44F
S11337906B017C01A3019201C301B20113D69B0109
S11337A0AC01C701B6018CD37AD6F101E85AFF4FB8
S11337B0608371838283938320E030E048E452E4A1
S11337C0698D7A8D8B8D9C8D49D46B017C01A5010B
S11337D09401C501B401F6D59B01AC01C701B60142
S11337E06FD35DD6F101E45AFF4F60837183828306
S11337F093837896C080D180E280F38020E030E02B
S1133800A901C701B601D3D518162CF4C701B60116
S113381092D4C10128DEA4960FB6F894DEBF0FBE81
S1133820CDBFDF91CF911F910F91FF90EF90DF906B
S1133830CF90BF90AF909F908F907F906F905F904C
S11338404F903F902F900895EF92FF920F931F9304
S1133850CF93DF93CDB7DEB72C970FB6F894DEBFC6
S11338600FBECDBF8C01BC01CE010196AFDD780146
S113387080E6E80EF11C20E030E043E053E4F80178
S11338806485758586859785E9D3F701608371839F
S1133890828393837801F4E6EF0EF11C20E030E09C
S11338A043E053E4F8016089718982899389D6D30E
S11338B0F70160837183828393837801F8E6EF0EC6
S11338C0F11C20E030E043E053E4F8016489758999
S11338D086899789C3D3F701608371838283938335
S11338E02C960FB6F894DEBF0FBECDBFDF91CF91FB
S11338F01F910F91FF90EF900895805A9F4FFC0104
S1133900608171818281938108958C599F4FFC015C
S11339106081718182819381089588599F4FFC0150
S1133920608171818281938108957899FECF79991C
S113393004C081E08093C40408957A9904C081E0AE
S11339408093C30408957B9904C081E08093C204EA
S113395008957C9904C081E08093C10408957D9901
S113396004C081E08093C004089581E08093BF0483
S113397008951092B90088E48093B800089594EAF9
S11339809093BC00ECEBF0E090819923ECF79091DC
S1133990B900987F983011F09031A1F48093BB0066
S11339A084E88093BC00ECEBF0E080818823ECF7A2
S11339B09091B900987F983139F081E0903429F4DE
S11339C080E0089581E0089580E00895D8CF0895B7
S11339D084E98093BC00ECEBF0E0808184FDFDCFB2
S11339E00895BF92CF92DF92EF92FF920F931F93AD
S11339F0CF93DF93B82ECCEBD0E009EB10E00F2E81
S1133A00F4EADF2EF02D0F2EFBEBEF2EF12CF02D30
S1133A100F2EF4E8CF2EF02DD88288818823ECF77E
S1133A20F8018081887F8830B9F7F701B082C882B5
S1133A3088818823ECF7F8018081887F883111F030
S1133A40C7DFEACFDF91CF911F910F91FF90EF90E5
S1133A50DF90CF90BF9008958093BB0084E880935B
S1133A60BC00ECEBF0E080818823ECF79091B90086
S1133A70987F81E0983209F480E0089584EC809383
S1133A80BC00ECEBF0E080818823ECF78091BB0074
S1133A90089584E88093BC00ECEBF0E080818823F7
S1133AA0ECF78091BB0008951F920F920FB60F920E
S1133AB011240BB60F922F938F939F93EF93FF9341
S1133AC08091C0002091C6008871E0917505EF5F78
S1133AD0EF7190917405E91739F0E0937505F0E002
S1133AE0E858FA4F208301C082E080937305FF9168
S1133AF0EF919F918F912F910F900BBE0F900FBE5E
S1133B000F901F9018951F920F920FB60F921124C9
S1133B100BB60F928F939F93EF93FF93909177053A
S1133B2080917605981769F0E0917605EF5FEF7163
S1133B30E0937605F0E0E856FA4F80818093C60062
S1133B4005C0E1ECF0E080818F7D8083FF91EF91EF
S1133B509F918F910F900BBE0F900FBE0F901F90EF
S1133B6018951092770510927605109275051092AB
S1133B707405992324F422E02093C0009F77909346
S1133B80C5008093C40088E98093C10086E08093D7
S1133B90C2000895209177052F5F2F7190917605CB
S1133BA02917E1F3E22FF0E0E856FA4F80832093DF
S1133BB07705E1ECF0E08081806280830895CF9303
S1133BC0DF93EC018881882329F02196E3DF899132
S1133BD08111FCCFDF91CF9108951F920F920FB600
S1133BE00F9211240BB60F922F938F939F93EF9301
S1133BF0FF938091C8002091CE008871E091300538
S1133C00EF5FEF7190912F05E91739F0E0933005DC
S1133C10F0E0ED5CFA4F208301C082E080932E0532
S1133C20FF91EF919F918F912F910F900BBE0F9069
S1133C300FBE0F901F9018951F920F920FB60F9200
S1133C4011240BB60F928F939F93EF93FF93909150
S1133C50320580913105981769F0E0913105EF5FE5
S1133C60EF71E0933105F0E0ED5AFA4F80818093D3
S1133C70CE0005C0E9ECF0E080818F7D8083FF9168
S1133C80EF919F918F910F900BBE0F900FBE0F90ED
S1133C901F9018951F920F920FB60F9211248F93B5
S1133CA08091D6008093B8058F910F900FBE0F902E
S1133CB01F9018951F920F920FB60F9211240BB6F6
S1133CC00F928F939F93EF93FF9390910D058091A3
S1133CD00C05981769F0E0910C05EF5FEF71E09324
S1133CE00C05F0E0E25FFA4F80818093D60005C0B6
S1133CF0E1EDF0E080818F7D8083FF91EF919F91D2
S1133D008F910F900BBE0F900FBE0F901F901895C0
S1133D1010920D0510920C0510920B0510920A05D5
S1133D20992324F422E02093D0009F779093D50028
S1133D308093D40088E98093D10086E08093D200F8
S1133D4008958091B80590E0089520910D052F5FA6
S1133D502F7190910C052917E1F3E22FF0E0E25F57
S1133D60FA4F808320930D05E1EDF0E080818062BD
S1133D70808308951F920F920FB60F9211240BB6F1
S1133D800F922F938F939F93EF93FF938091300122
S1133D90209136018871E091C704EF5FEF71909133
S1133DA0C604E91739F0E093C704F0E0E653FB4F8B
S1133DB0208301C082E08093C504FF91EF919F911D
S1133DC08F912F910F900BBE0F900FBE0F901F90ED
S1133DD018951F920F920FB60F9211240BB60F92E3
S1133DE08F939F93EF93FF939091C9048091C8049C
S1133DF0981769F0E091C804EF5FEF71E093C8048D
S1133E00F0E0E651FB4F80818093360105C0E1E389
S1133E10F1E080818F7D8083FF91EF919F918F915D
S1133E200F900BBE0F900FBE0F901F90189510921D
S1133E30C9041092C8041092C7041092C6049923AE
S1133E4024F426E0209330019F77909335018093EA
S1133E50340188E98093310186E08093320108952A
S1133E609091C7048091C604981791F0E091C6041C
S1133E70EF5FEF71E093C604F0E0E653FB4F20815F
S1133E808091C50490E0982F8827820F911D089592
S1133E9080E091E008952091C9042F5F2F719091E3
S1133EA0C8042917E1F3E22FF0E0E651FB4F8083C9
S1133EB02093C904E1E3F1E0808180628083089566
S1133EC05058BB27AA270ED027C2F0D130F0F5D125
S1133ED020F031F49F3F11F41EF4C0C10EF4E095BC
S1133EE0E7FBB6C1E92F3AD280F3BA17620773072A
S1133EF08407950718F071F49EF552C20EF4E0950C
S1133F000B2EBA2FA02D0B01B90190010C01CA018F
S1133F10A0011124FF27591B99F0593F50F4503E3A
S1133F2068F11A16F040A22F232F342F4427585F2C
S1133F30F3CF469537952795A795F0405395C9F744
S1133F407EF41F16BA0B620B730B840BBAF09150FC
S1133F50A1F0FF0FBB1F661F771F881FC2F70EC09B
S1133F60BA0F621F731F841F48F48795779567956E
S1133F70B795F7959E3F08F0B3CF9395880F08F057
S1133F809927EE0F97958795089590D158F080E87A
S1133F9091E009F49EEF91D128F040E851E059F402
S1133FA05EEF09C05BC1FCC1E92FE078D7D168F3AB
S1133FB0092E052AC1F3261737074807590738F091
S1133FC00E2E07F8E02569F0E025E0640AC0EF63EF
S1133FD007F8009407FADB01B9019D01DC01CA016D
S1133FE0AD01EF934AD098D10AD05F91552331F0B7
S1133FF02BED3FE049E450FD49EC63CF0895DF9396
S1134000DD27B92FBF7740E85FE316161706480788
S11340105B0710F4D92FCFD19F938F937F936F9326
S11340207CD2E4EEF0E01DD177D12F913F914F91F6
S11340305F91D4D1DD2349F09058A2EA2AED3FE004
S113404049EC5FE3D0785D274DDFDF9165C1DCD0BB
S113405008F481E0089539D1E3956FC10CD05CC1B7
S11340602CD140F023D130F021F45F3F19F0F0C09F
S1134070511197C1F3C072D198F39923C9F3552311
S1134080B1F3951B550BBB27AA2762177307840747
S113409038F09F5F5F4F220F331F441FAA1FA9F3FD
S11340A033D00E2E3AF0E0E830D091505040E695EF
S11340B0001CCAF729D0FE2F27D0660F771F881F50
S11340C0BB1F261737074807AB07B0E809F0BB0B3F
S11340D0802DBF01FF2793585F4F2AF09E3F510563
S11340E068F0B6C05EC15F3FECF3983EDCF38695A2
S11340F077956795B795F7959F5FC9F7880F911DD9
S11341009695879597F90895E1E0660F771F881FC4
S1134110BB1F621773078407BA0720F0621B730B77
S1134120840BBA0BEE1F88F7E095089504D06894C9
S1134130B11137C108951AD188F09F5790F0B92F63
S11341409927B751A0F0D1F0660F771F881F991FE8
S11341501AF0BA95C9F712C0B13081F021D1B1E09B
S113416008951EC1672F782F8827B85F39F0B93FAB
S1134170CCF3869577956795B395D9F73EF49095EA
S11341808095709561957F4F8F4F9F4F0895E89468
S113419009C097FB3EF490958095709561957F4F8B
S11341A08F4F9F4F9923A9F0F92F96E9BB27939539
S11341B0F695879577956795B795F111F8CFFAF449
S11341C0BB0F11F460FF1BC06F5F7F4F8F4F9F4F7A
S11341D016C0882311F096E911C0772321F09EE8D8
S11341E0872F762F05C0662371F096E8862F70E03E
S11341F060E02AF09A95660F771F881FDAF7880F18
S11342009695879597F90895990F0008550FAA0B6D
S1134210E0E8FEEF16161706E807F907C0F01216D5
S11342201306E407F50798F0621B730B840B950BD8
S113423039F40A2661F0232B242B252B21F408952D
S11342400A2609F4A140A6958FEF811D811D0895CA
S113425097F99F6780E870E060E008959FEF80EC35
S11342600895DF93CF931F930F93FF92EF92DF9202
S11342707B018C01689405C0DA2EEF01AFD0FE01FA
S1134280E894A5912591359145915591AEF3EF01AF
S113429029DEFE019701A801DA9479F7DF90EF9007
S11342A0FF900F911F91CF91DF91089500240A94FC
S11342B01616170618060906089500240A941216FD
S11342C01306140605060895C9CF50D0E8F3E89400
S11342D0E0E0BB279F57F0F02AED3FE049EC06C031
S11342E0EE0FBB0F661F771F881F28F0B23A6207D4
S11342F07307840728F0B25A620B730B840BE3959F
S11343009A9572F7803830F49A95BB0F661F771F21
S1134310881FD2F7904806C1092E0394000C11F4AB
S1134320882352F0BB0F40F4BF2B11F460FF04C08C
S11343306F5F7F4F8F4F9F4F0895EF93E0FF06C04D
S1134340A2EA2AED3FE049EC5FEBCCDDE5DF0F901C
S1134350039401FC9058E1E1F1E0F7C057FD905857
S1134360440F551F59F05F3F71F04795880F97FB35
S1134370991F61F09F3F79F08795089512161306EF
S11343801406551FF2CF4695F1DF08C0161617061E
S11343901806991FF1CF8695710561050894089553
S11343A0E894BB2766277727CB0197F908952CDF7C
S11343B008F48FEF08959B01AC0160E070E080E8A1
S11343C09FE34CCE0BD0A8CF71DF28F076DF18F036
S11343D0952309F03DCF42CF1124E3CFBFDFA0F3F3
S11343E0959FD1F3950F50E0551F629FF001729F86
S11343F0BB27F00DB11D639FAA27F00DB11DAA1FA5
S1134400649F6627B00DA11D661F829F2227B00DF1
S1134410A11D621F739FB00DA11D621F839FA00D7C
S1134420611D221F749F3327A00D611D231F849FCC
S1134430600D211D822F762F6A2F11249F57504023
S11344408AF0E1F088234AF0EE0FFF1FBB1F661FBE
S1134450771F881F91505040A9F79E3F510570F077
S1134460F7CE9FCF5F3FECF3983EDCF386957795CC
S11344706795B795F795E7959F5FC1F7FE2B880F72
S1134480911D9695879597F908959F931EDF0F9038
S113449007FCEE5F52CF11F40EF4E0CE41C066DFAC
S11344A0D0F39923D9F3CEF39F57550B87FF46D00A
S11344B00024A0E640EA900180585695979528F488
S11344C0805C660F771F881F20F026173707480780
S11344D030F4621B730B840B202931294A2BA695D7
S11344E017940794202531254A2758F7660F771F1C
S11344F0881F20F026173707480730F4620B730B28
S1134500840B200D311D411DA09581F7B901842F25
S11345109158880F9695879508959B01AC0152CFC9
S11345209F3F31F0915020F4879577956795B79523
S1134530880F911D9695879597F90895915050404D
S1134540660F771F881FD2F708959F938F937F93E9
S11345506F93FF93EF939B01AC0134DFEF91FF91D5
S113456080DE2F913F914F915F912CCF97FB072EC7
S113457016F4009406D077FD08D00BD007FC05D0C4
S11345803EF4909581959F4F0895709561957F4F66
S11345900895AA1BBB1B51E107C0AA1FBB1FA61786
S11345A0B70710F0A61BB70B881F991F5A95A9F7D8
S11345B080959095BC01CD010895EE0FFF1F881FD3
S11145C08BBF0790F691E02D1994F894FFCF6D
S11345CE0101010101080001012D230707FFFF016D
S11345DE010101FFFF01FFFF01FF0101FF000000C8
S11345EE000101000080BF0000803F0000803F00FA
S11345FE0080BF000080BF0000803F0000803F00AD
S113460E0080BF0000803F0000803F0000803F001C
S113461E00803F0101010173687574746C65636FEA
S113462E636B20676976656E200D0A006D6F76697F
S113463E6E6720616865656164200D0A00676F69A5
S113464E6E6720747A32200900676F696E67207472
S113465E7A33200900696E74657272757074206FF6
S113466E6E00676F696E6720747A3109000A001450
S111467E001E00280032003C004600500000E0
S9030000FC
