S00E00004D61737465722E73726563AA
S113000098C00000C7C00000C5C00000F5C00000D3
S1130010C1C00000BFC0000016C10000BBC000008A
S1130020B9C000000C94DF16B5C000000C94311761
S1130030B1C00000AFC00000ADC00000C0C10000EE
S1130040A9C00000A7C00000A5C00000A3C0000014
S1130050A1C000009FC000009DC000001BC10000A3
S113006099C000000C94DA1C0C94091D93C0000084
S113007091C000008FC000008DC000008BC0000044
S113008089C0000087C0000085C0000083C0000054
S11300900C94731D0C94A21D7DC000007BC0000055
S11300A079C0000077C0000075C0000073C0000074
S11300B071C000006FC000006DC000006BC0000084
S11300C069C0000067C0000065C000000C94D01D2A
S11300D00C94E01D5FC000000C94401E0C946F1E35
S11300E059C00000084AD73B3BCE016E84BCBFFD1B
S11300F0C12F3D6C74319ABD56833DDA3D00C77FF4
S113010011BED9E4BB4C3E916BAAAABE000000808C
S11301103F05A84CCDB2D44EB93836A9020C50B91B
S1130120918688083CA6AAAA2ABE000000803F0047
S1130130DE1711241FBECFEFD1E2DEBFCDBF00E03A
S11301400CBF12E0A0E0B2E0EAEDF4E400E00BBF83
S113015002C007900D92AE39B107D9F725E0AEE998
S1130160B2E001C01D92A939B207E1F710E0C9E974
S1130170D0E000E006C021970109802FFE010E9413
S11301806322C839D10780E00807A9F70E94A217A3
S11301900C946B2235CF789480E3809369008CE0D3
S11301A080936A008DB384628DBB0895789485B57D
S11301B0856085BD81E080936E000895CF93DF93C1
S11301C0EC0168817981072E000C880B990B0E9441
S11301D04F202EEF34E346E353E40E94682120E0ED
S11301E030E048E453E40E94B41F6C837D838E8323
S11301F09F83DF91CF9108951F920F920FB60F92B4
S113020011240BB60F928F939F93EF93FF93009B50
S113021008C0E6EAF2E080819181019691838083AF
S113022007C0E6EAF2E0808191810197918380839F
S1130230FF91EF919F918F910F900BBE0F900FBE86
S11302400F901F9018951F920F920FB60F921124C2
S11302500BB60F928F939F93EF93FF93059B08C068
S1130260EEE9F2E08081918101969183808307C059
S1130270EEE9F2E080819181019791838083FF917F
S1130280EF919F918F910F900BBE0F900FBE0F9027
S11302901F9018951F920F920FB60F9211248F93EF
S11302A081E080930202809304028093030280938E
S11302B00102809300028F910F900FBE0F901F9048
S11302C018950E943F1C8CE30E94451C80E00E940C
S11302D0B21C80E70E94B21C0E946E1C8CE30E9438
S11302E0451C81E00E94B21C80EA0E94B21C0E945C
S11302F06E1C8CE30E94451C82E00E94B21C80E0CC
S11303000E94B21C0C946E1C08958CE30E94451C40
S113031083E00E94B21C0E946E1C8DE30E946C1C40
S11303200E94C41C10929C0480939D040E94C41CCF
S113033020919C0430919D04282B30939D0420939C
S11303409C040E94C41C10929804809399040E94F7
S1130350C41C2091980430919904282B309399045B
S1130360209398040E94C41C10929A0480939B04C6
S11303700E94CF1C20919A0430919B04282B309327
S11303809B0420939A040C946E1C08952FB7F89440
S113039060919404709195048091960490919704CF
S11303A02FBF0895E1EBF0E0808184608083E0E773
S11303B0F0E08081816080831092B20008951F92E2
S11303C00F920FB60F9211248F939F93AF93BF9305
S11303D08091940490919504A0919604B09197040F
S11303E00196A11DB11D8093940490939504A0934C
S11303F09604B09397048091900490919104A091F5
S11304009204B09193040396A11DB11D80939004AE
S113041090939104A0939204B093930480919004D8
S113042090919104A0919204B09193048D37910519
S1130430A105B10538F18091900490919104A091A7
S11304409204B09193048D579109A109B109809345
S1130450900490939104A0939204B0939304809198
S1130460940490919504A0919604B09197040196F8
S1130470A11DB11D8093940490939504A0939604B8
S1130480B0939704BF91AF919F918F910F900FBE3E
S11304900F901F90189515DF87E194E00E946C1867
S11304A062E387E194E00E941F1A7CDF6FDF6093B0
S11304B0FB037093FC038093FD039093FE03089564
S11304C04F925F926F927F928F929F92AF92BF9260
S11304D0CF92DF92EF92FF920F931F93CF93DF930C
S11304E0CDB7DEB764970FB6F894DEBF0FBECDBFAD
S11304F069837A838B839C8329013A01E98AFA8A86
S11305000B8B1C8B0E94B11F6D877E878F87988B06
S113051069817A818B819C810E94CB2169837A8352
S11305208B839C83C301B2010E94B11F6D837E83C0
S11305308F839887C301B2010E94CB2169877A8790
S11305408B879C87A60195016D817E818F8198851B
S11305500E9468212B013C0128A539A54AA55BA569
S113056069857A858B859C850E9468219B01AC01F5
S1130570C301B2010E94E61E2B013C01A6019501B4
S113058069817A818B819C810E94682129853A85C1
S11305904B855C850E9468214B015C01A801970191
S11305A06D857E858F8598890E9468219B01AC01A9
S11305B0C501B4010E94E61E4B015C0128A539A5C2
S11305C04AA55BA569817A818B819C810E946821FF
S11305D02D813E814F8158850E9468219B01AC0189
S11305E0C501B4010E94E71E9058A30192010E9424
S11305F05A1F21EE3EE245E652E40E9468210E9421
S11306001C209B01772314F428593E4FC90164969A
S11306100FB6F894DEBF0FBECDBFDF91CF911F910F
S11306200F91FF90EF90DF90CF90BF90AF909F908D
S11306308F907F906F905F904F9008954F925F924C
S11306406F927F92AF92BF92CF92DF92EF92FF921E
S11306500F931F93CF93DF93CDB7DEB728970FB6D1
S1130660F894DEBF0FBECDBF60919A0470919B04D5
S1130670072E000C880B990B0E944F205B016C0124
S113068060919C0470919D04072E000C880B990BBB
S11306900E944F2069837A838B839C8325E33AEFFE
S11306A04EE85CE3609103047091040480910504B6
S11306B0909106040E9468216D837E838F839887BE
S11306C025E33AEF4EE85CE3609107047091080477
S11306D08091090490910A040E9468212B013C0135
S11306E06091980470919904072E000C880B990B63
S11306F00E944F209F938F937F936F93E980FA809A
S11307000B811C812D813E814F815885C301B2012B
S1130710D7DE0F900F900F900F90BC0180E090E017
S11307200E944D202B013C012AE0298360E070E007
S1130730CB01A30192010E94E71E29812150298344
S11307402111F7CF20E030E040E251E40E94B41FD1
S113075028960FB6F894DEBF0FBECDBFDF91CF91C0
S11307601F910F91FF90EF90DF90CF90BF90AF90CB
S11307707F906F905F904F900895CF92DF92EF92A9
S1130780FF920F931F93CF93DF93CDB7DEB72C97D0
S11307900FB6F894DEBF0FBECDBF67E174E0CE01A3
S11307A001960E940D198CE0FE013196AFEEB3E084
S11307B001900D928A95E1F787E194E00E94AA1BCB
S11307C00FEE13E0F801C084D184E284F3846081E5
S11307D0718182819381A70196010E945A1F21EEA3
S11307E03EE245E652E40E9468216093130470934C
S11307F014048093150490931604F80164817581A0
S113080086819781A70196010E945A1F21EE3EE23C
S113081045E652E40E94682160930F04709310042B
S1130820809311049093120470DDB0DD0091FB03FA
S11308301091FC032091FD033091FE0360177107B2
S11308408207930709F4F0C0A1DD6093FB03709362
S1130850FC038093FD039093FE038091540288234C
S113086091F18091130490911404A0911504B09116
S113087016048093070490930804A0930904B0938A
S11308800A0480910F0490911004A0911104B09176
S113089012048093030490930404A0930504B0937A
S11308A0060480910B0490910C04A0910D04B09166
S11308B00E048093FF0390930004A0930104B0936B
S11308C002041092540287E194E00E94031C2FE674
S11308D032E143E85AE30E946821209107043091F1
S11308E008044091090450910A040E94E71E2BE772
S11308F034E14EE65FE30E9468216B017C0129E24A
S11309003CE54FE85DE36091130470911404809119
S11309101504909116040E9468219B01AC01C70143
S1130920B6010E94E71E6093070470930804809345
S1130930090490930A0487E194E00E940B1C2FE6BB
S113094032E143E85AE30E94682120910304309184
S1130950040440910504509106040E94E71E2BE70D
S113096034E14EE65FE30E9468216B017C0129E2D9
S11309703CE54FE85DE360910F04709110048091B1
S11309801104909112040E9468219B01AC01C701DB
S1130990B6010E94E71E60930304709304048093DD
S11309A00504909306044ADE60930B0470930C04D0
S11309B080930D0490930E0487E194E00E94131C2D
S11309C02FE632E143E85AE30E9468212091FF03B5
S11309D03091000440910104509102040E94E71EEA
S11309E02DEC3CEC4CEC5DE30E9468216B017C0136
S11309F026E636E646E65FE360910B0470910C044C
S1130A0080910D0490910E040E9468219B01AC0119
S1130A10C701B6010E94E71E6093FF0370930004B0
S1130A2080930104909302046091FF037091000489
S1130A3080910104909102040E942120CB012C9604
S1130A400FB6F894DEBF0FBECDBFDF91CF911F91DB
S1130A500F91FF90EF90DF90CF9008950F931F9325
S1130A60CF93DF93EDE4F3E088E290E0928B818B07
S1130A70148A138A80E090E0A0EBB0E4858B968B17
S1130A80A78BB08F118E128E138E148E80E090E09F
S1130A90AAEFB3E4858F968FA78FB0A3ECE2F3E0BF
S1130AA08AE999E9A9E1BEE3858B968BA78BB08F80
S1130AB0118E128E138E148E46E656E666E67FE39A
S1130AC0458F568F678F70A3EBE0F3E0858B968B91
S1130AD0A78BB08F118E128E138E148E80E090E04F
S1130AE0A0E8BFE3858F968FA78FB0A3A6EEB2E0F0
S1130AF08DE290E01F969C938E931E97E5ECF2E0B6
S1130B00978786870AE919E929E93FE355960D9302
S1130B101D932D933C93589759961D921D921D92A7
S1130B201C925C9740E050E060E871E45D964D9360
S1130B305D936D937C939097058B168B278B308FE9
S1130B40118E128E138E148E458F568F678F70A35D
S1130B50A2DC1CDC6093EB037093EC038093ED0345
S1130B609093EE03CDE4D3E011DC0091EB031091FC
S1130B70EC032091ED033091EE03DC01CB01801BEB
S1130B80910BA20BB30B843F9140A105B10548F42E
S1130B90F4DD9093D0038093CF03188A9F878E87C8
S1130BA0E3CF0E941B1CDF91CF911F910F910895F9
S1130BB0E8E0F1E0908181E0892780831092CD0301
S1130BC01092CC031092CB031092CA030895CF93D2
S1130BD0DF938FE70E942B1EC3EED3E088810E942F
S1130BE02B1E89810E942B1E8A810E942B1E8B81C1
S1130BF00E942B1EDF91CF9108950F931F931092A3
S1130C00CB038091000183FF57C0639B58C054C03D
S1130C108091000183FF6FC08AC08091000183FD31
S1130C2089C0639947C08091000183FF9BC080E025
S1130C30A0C0EBEDF3E011821082138212821582C0
S1130C4014821782168280915302882359F09EDB06
S1130C506093E7037093E8038093E9039093EA03B6
S1130C601092530293DB0091E7031091E803209163
S1130C70E9033091EA03AB01BC01401B510B620B49
S1130C80730B81E0423051056105710508F071C0B4
S1130C9080E06FC0EBEDF3E08FE090E09183808320
S1130CA0138212821582148281EF9FEF97838683C9
S1130CB080E05FC080E05DC06399AACF38C0109225
S1130CC02102EBEDF3E08EE190E0918380831382C7
S1130CD01282158214828CEE9FEF97838683109282
S1130CE0E7031092E8031092E9031092EA0381E00B
S1130CF08093530296CF10922102EBEDF3E084E14E
S1130D0090E091838083138212821582148282EE92
S1130D109FEF978386831092E7031092E803109263
S1130D20E9031092EA0381E0809353027ACF639936
S1130D3074CF77CF81E080932102E5EDF3E028EDD5
S1130D403FEF318320831382128215821482109222
S1130D50E7031092E8031092E9031092EA038093E8
S1130D6053025FCF109221028091CE03811192CF62
S1130D7060CF1F910F9108952F923F924F925F92EF
S1130D806F927F928F929F92AF92BF92CF92DF9297
S1130D90EF92FF920F931F93CF93DF9300D01F9294
S1130DA0CDB7DEB780910202882309F419C180917E
S1130DB05602882309F418C1E0DC8C01EDE4F3E069
S1130DC09183808386859785801B910B853B910554
S1130DD03CF0885691409093500380934F030FC08A
S1130DE08C342FEF92072CF09093500380934F0391
S1130DF006C088599E4F9093500380934F032090D0
S1130E004F0330905003B101032C000C880B990B55
S1130E100E944F204B015C012091660330916703CF
S1130E2040916803509169030E94682120915703FF
S1130E30309158034091590350915A030E94E71E80
S1130E406B017C016093570370935803809359039B
S1130E5090935A0360915E0370915F03072E000C18
S1130E60880B990B0E944F2069837A838B839C8320
S1130E702DEC3CEC4CEC5DE30E9468212B013C0121
S1130E80C701B6010E941C209B01772324F422276A
S1130E903327261B370BB901330F880B990B0E949C
S1130EA04F20A30192010E945D21181624F520E031
S1130EB030E0A901C701B6010E945D2118164CF467
S1130EC040925703509258036092590370925A0308
S1130ED012C02DEC3CEC4CEC5DEB69817A818B818A
S1130EE09C810E94682160935703709358038093F8
S1130EF0590390935A03C101992324F4882799270D
S1130F00821993090297E4F12091620330916303FB
S1130F104091640350916503C501B4010E946821A6
S1130F206B017C018091510390915203B801681BBD
S1130F30790B072E000C880B990B0E944F202091EF
S1130F406A0330916B0340916C0350916D030E94CE
S1130F5068219B01AC01C701B6010E94E61E2091E5
S1130F605703309158034091590350915A030E94FA
S1130F70E71E0E941C20709354036093530308C01F
S1130F80EDE4F3E012861386148615861782168222
S1130F90EDE4F3E080819181958384838681978158
S1130FA021893289AC01992324F444275527481B0D
S1130FB0590B2417350754F4281739071CF03195B9
S1130FC021953109309354032093530380915303A3
S1130FD0909154039093DA038093D9031092020200
S1130FE080915602811104C01092DA031092D90341
S1130FF00F900F900F900F90DF91CF911F910F9151
S1131000FF90EF90DF90CF90BF90AF909F908F9024
S11310107F906F905F904F903F902F9008952F9204
S11310203F924F925F926F927F928F929F92AF9274
S1131030BF92CF92DF92EF92FF920F931F93CF93C1
S1131040DF9300D01F92CDB7DEB7809121028823B1
S113105009F457C00F2EFBEDCF2EF3E0DF2EF02D59
S11310600F2EF3E24F2EF2E05F2EF02D0F2EF3EE53
S11310702F2EF3E03F2EF02D0F2EFBED6F2EF3E01D
S11310807F2EF02DDA82C98205ED13E072011B82F6
S11310901C82D8016D917D918D01F7018190919011
S11310A0A190B1907F01072E000C880B990B0E9430
S11310B04F20A50194010E9468214B015C012B8102
S11310C03C81B901330F880B990B0E944F209B017F
S11310D0AC01C501B4010E94E71E0E941C207C8360
S11310E06B8306151705A9F6A981BA816D937C93C4
S11310F0F2E0CF0ED11C2CE0420E511CC214D304DA
S113110009F6E3EEF3E0ABEDB3E02D913C9147E15A
S1131110429FC001439F900D112429EF30E0B90193
S11311200E943C2260836091DD037091DE03469F40
S1131130C001479F900D1124B9010E943C22618394
S11311406091DF037091E003469FC001479F900DBB
S11311501124B9010E943C2262836091E1037091E1
S1131160E203469FC001479F900D1124B9010E94DC
S11311703C2263832CDD0F900F900F900F90DF9132
S1131180CF911F910F91FF90EF90DF90CF90BF9080
S1131190AF909F908F907F906F905F904F903F9013
S11311A02F9008952F923F924F925F926F927F9269
S11311B08F929F92AF92BF92CF92DF92EF92FF9263
S11311C00F931F93CF93DF931C018B017A0181E06E
S11311D08093210286EA92E00E94DE000E941C2095
S11311E0AB01772324F444275527461B570BEA0108
S11311F05093D4034093D30330923B0320923A0399
S113120020910102222309F455C11092CB031092BC
S1131210CA0350932D0340932C0310920102483EBD
S113122083E058070CF4EAC0241A350A0F2EFCE2B6
S1131230CF2EF3E0DF2EF02DF60133822282B101AE
S1131240032C000C880B990B0E944F202B013C01AE
S1131250F601218D328D438D548D0E946821F60153
S113126022853385448555850E94E71E4B015C0128
S1131270F60162877387848795878089882319F0AC
S1131280D583C483108AC501B4010E941C209B012C
S1131290772324F422273327261B370B2B303105E1
S11312A05CF120E030E0A901C501B4010E945D2198
S11312B018166CF480E090E0A0E2B1E48093360369
S11312C090933703A0933803B093390315C020E0FB
S11312D030E0A901C501B4010E94AD1F882364F464
S11312E080E090E0A0E2B1EC809336039093370362
S11312F0A0933803B093390312141304BCF50F2ED2
S1131300FCE2CF2EF3E0DF2EF02DF601258936899D
S11313104789508DC301B2010E946821F6012285DC
S11313203385448555850E94E71E4B015C01F60117
S113133084819581BE01681B790B072E000C880BF4
S1131340990B0E944F20F601258D368D478D50A1B3
S11313500E9468219B01AC01C501B4010E94E61EF4
S11313600E941C20F6017783668304C01092330325
S113137010923203ECE2F3E0D583C4838681978133
S11313809C01992324F422273327281B390BE216C6
S1131390F30678F4181619062CF4F0923303E0924D
S11313A0320307C0F194E194F108F0923303E09220
S11313B03203809132039091330343968797A8F4C4
S11313C08091CD03882339F084E190E09093330336
S11313D0809332030AC08091CC03882331F08CEED1
S11313E09FEF909333038093320380913203909163
S11313F033039093D6038093D50335C080912202A2
S11314008823C9F0BA01550F880B990B0E944F200D
S11314102DEC3CEC4CEC5DE30E94682120E030E0D4
S113142040E752E40E94E71E0E941C207093D603FA
S11314306093D50318C0BA01550F880B990B0E940D
S11314404F202AE037ED43E25DE30E94682120E06B
S113145030E040E752E40E94E71E0E941C20709393
S1131460D6036093D5030230110551F481E08093D3
S1131470CD031092CC031092CA031092CB031AC06E
S113148003301105B9F4E5EDF3E0808191819923EE
S11314901CF4919581959109919581959109918378
S11314A080831092CD0381E08093CC031092CB0310
S11314B01092CA0380912202882349F0E5EDF3E0FB
S11314C08CEE9FEF938382831582148205C0109261
S11314D0D8031092D70350DCDF91CF911F910F9165
S11314E0FF90EF90DF90CF90BF90AF909F908F9040
S11314F07F906F905F904F903F902F9008950E943F
S1131500271E853638F090910A02903561F09A30A2
S1131510D9F504C090910A029A3081F5811131C045
S113152010920A032EC0863479F410920903909124
S11315300A03911120C01AC08AE080930A0281E054
S113154080930A0390E020C0853640F080E58093C4
S11315500A0281E0809309039AE516C090910A0378
S1131560911109C090910903911105C09AE0980F57
S113157090930A0209C09AE0980F06C0903571F75B
S1131580D2CF853658F3D8CF892F08954F925F92E2
S11315906F927F92AF92BF92CF92DF92EF92FF92BF
S11315A00F931F93CF93DF930F2EFEE8EF2EF2E0FD
S11315B0FF2EF02D00EB13E0C0E0D0E0CC24C39468
S11315C0D12C86B190E00C2E02C0959587950A9493
S11315D0E2F780FF10C0F801D182C0822091C903D4
S11315E0C6010C2E02C0880F991F0A94E2F7822BC1
S11315F08093C90303C0F80111821082F70181911D
S113160091917F01F801A190B1908F018A9DB00161
S11316108B9D700D9A9D700D1124072E000C880B64
S1131620990B0E944F202091C4033091C50340912F
S1131630C6035091C7030E94E71E2B013C0160932F
S1131640C4037093C5038093C6039093C703B50185
S1131650BB0C880B990B0E944F202091C003309142
S1131660C1034091C2035091C3030E94E71E6093DB
S1131670C0037093C1038093C2039093C303219664
S1131680C830D10509F09DCF9B01AC01C301B20163
S11316900E94B41F0E9421206093C8031092C403C7
S11316A01092C5031092C6031092C7031092C00390
S11316B01092C1031092C2031092C30380910902D5
S11316C08A3029F46A3081F5109208032DC08035E0
S11316D0F1F4603581F410920703809108038823A4
S11316E0F1F01FC01092C8038AE08093090281E0E0
S11316F08093080316C061110AC08AE58093C80369
S113170080E58093090281E0809307030AC08091F9
S11317100803811106C080910703811102C0609300
S113172009028091C80303C06111F1CFDBCFDF91BF
S1131730CF911F910F91FF90EF90DF90CF90BF90CA
S1131740AF907F906F905F904F9008954F925F920B
S11317506F927F928F929F92AF92BF92EF92FF927D
S11317600F931F93CF93DF938091F602882359F050
S1131770C6DE882341F0C3DEE6EEF2E090E0958316
S11317808483108AC5C080910402882309F4C0C0F0
S113179080915502882309F4BFC0B1DEE82EF12CF4
S11317A0C6EED2E0F982E8820E851F850E191F0964
S11317B01B830A83B801012E000C880B990B0E942D
S11317C04F204B015C01298D3A8D4B8D5C8D0E941D
S11317D068212A853B854C855D850E94E71E2B0187
S11317E03C016A877B878C879D870E941C209B0114
S11317F0772324F422273327261B370B2630310581
S11318005CF120E030E0A901C301B2010E945D2136
S113181018166CF480E090E0A0EAB0E48093F00243
S11318209093F102A093F202B093F30215C020E06A
S113183030E0A901C301B2010E94AD1F882364F402
S113184080E090E0A0EAB0EC8093F0029093F10283
S1131850A093F202B093F302012B49F4E6EEF2E016
S11318601286138614861586178216822DC0C6EE3C
S1131870D2E02D893E894F89588DC501B4010E945B
S113188068212A853B854C855D850E94E71E4B01B6
S11318905C018C819D81B701681B790B072E000CBC
S11318A0880B990B0E944F202D8D3E8D4F8D58A192
S11318B00E9468219B01AC01C501B4010E94E61E8F
S11318C00E941C207F836E83E6EEF2E0808191818A
S11318D095838483868197819C01992324F422270C
S11318E03327281B390B2135310584F018161906C6
S11318F03CF480E590E09093ED028093EC0206C006
S113190080EB9FEF9093ED028093EC021092030220
S113191080915502811104C01092ED021092EC02E4
S1131920DF91CF911F910F91FF90EF90BF90AF90F7
S11319309F908F907F906F905F904F9008954F92FB
S11319405F926F927F928F929F92AF92BF92EF922B
S1131950FF920F931F93CF93DF938091D502882337
S113196051F014DE882339F011DEE5ECF2E090E06A
S113197095838483108A80910402882309F4C0C06B
S113198080915502882309F4BFC000DEE82EF12CB3
S1131990C5ECD2E0F982E8820E851F850E191F0975
S11319A01B830A83B801012E000C880B990B0E943B
S11319B04F204B015C01298D3A8D4B8D5C8D0E942B
S11319C068212A853B854C855D850E94E71E2B0195
S11319D03C016A877B878C879D870E941C209B0122
S11319E0772324F422273327261B370B263031058F
S11319F05CF120E030E0A901C301B2010E945D2145
S1131A0018166CF480E090E0A0EAB0E48093CF0272
S1131A109093D002A093D102B093D20215C020E0DB
S1131A2030E0A901C301B2010E94AD1F882364F410
S1131A3080E090E0A0EAB0EC8093CF029093D002D3
S1131A40A093D102B093D202012B49F4E5ECF2E069
S1131A501286138614861586178216822DC0C5EC4D
S1131A60D2E02D893E894F89588DC501B4010E9469
S1131A7068212A853B854C855D850E94E71E4B01C4
S1131A805C018C819D81B701681B790B072E000CCA
S1131A90880B990B0E944F202D8D3E8D4F8D58A1A0
S1131AA00E9468219B01AC01C501B4010E94E61E9D
S1131AB00E941C207F836E83E5ECF2E0808191819B
S1131AC095838483868197819C01992324F422271A
S1131AD03327281B390B2135310584F018161906D4
S1131AE03CF480E590E09093CC028093CB0206C056
S1131AF080EB9FEF9093CC028093CB021092040270
S1131B0080915502811104C01092CC021092CB0234
S1131B10DF91CF911F910F91FF90EF90BF90AF9005
S1131B209F908F907F906F905F904F9008958091D9
S1131B300C02811108C080910B02823071F0833055
S1131B4071F4A1E013C0813061F480910B02823002
S1131B5051F0833051F4A3E009C0A0E007C0A4E031
S1131B6005C0A4E003C0A2E001C0A4E0B0E0AA0F55
S1131B70BB1FAA0FBB1FA35FBD4FEBEDF3E063EEEA
S1131B8073E04D91208131814203C001439F900D48
S1131B90112481939193E617F70799F70895CF934A
S1131BA0DF93EC0110922102D1DDC9DE80910B029A
S1131BB08230F1F48091EC029091ED02EBEDF3E0D0
S1131BC09C012C0F3D1F318320839E01281B390B60
S1131BD0338322838091CB029091CC029E01280F03
S1131BE0391F35832483C81BD90BD783C6831CC0F4
S1131BF08091EC029091ED02EBEDF3E09E01281B45
S1131C00390B318320838C0F9D1F938382838091B2
S1131C10CB029091CC029E01281B390B358324837F
S1131C20C80FD91FD783C68382DFDF91CF91089570
S1131C300F931F93E6EEF2E00AE919E929E13FE385
S1131C40058B168B278B308F118E128E138E148E6C
S1131C5040E050E060E871E4458F568F678F70A3D1
S1131C60E5ECF2E0058B168B278B308F118E128EEC
S1131C70138E148E458F568F678F70A321E02093A7
S1131C800C0222E020930B028ADF1F910F9108952A
S1131C902F923F924F925F926F927F928F929F9278
S1131CA0AF92BF92CF92DF92EF92FF920F931F9366
S1131CB0CF93DF931C018B017A01E6EEF2E08AE90F
S1131CC099E9A9E9BFE3858B968BA78BB08F118E19
S1131CD0128E138E148E80E090E0A0E8B1E4858F1C
S1131CE0968FA78FB0A38EE992E00E94DE000E9437
S1131CF01C209B01772324F422273327261B370B30
S1131D00E9013093D2032093D10330921A03209235
S1131D10190380910002882309F40AC11092000279
S1131D20283582E038070CF4ADC00F2EFBE0CF2E2F
S1131D30F3E0DF2EF02DF60131832083221A330ADB
S1131D4033822282B101032C000C880B990B0E9470
S1131D504F202B013C01F601218D328D438D548D92
S1131D600E946821F60122853385448555850E94A9
S1131D70E71E4B015C01F6016287738784879587B0
S1131D808089882319F0D583C483108AC501B401DE
S1131D900E941C209B01772324F422273327261B2F
S1131DA0370B2B3031055CF120E030E0A901C5018F
S1131DB0B4010E945D2118166CF480E090E0A0E26A
S1131DC0B1E48093150390931603A0931703B09383
S1131DD0180315C020E030E0A901C501B4010E9438
S1131DE0AD1F882364F480E090E0A0E2B1EC80931E
S1131DF0150390931603A0931703B09318031214BA
S1131E001304BCF50F2EFBE0CF2EF3E0DF2EF02DF4
S1131E10F601258936894789508DC301B2010E9494
S1131E206821F60122853385448555850E94E71E85
S1131E304B015C01F60184819581BE01681B790B1D
S1131E40072E000C880B990B0E944F20F601258D5C
S1131E50368D478D50A10E9468219B01AC01C501BC
S1131E60B4010E94E61E0E941C20F601778366835B
S1131E7004C01092120310921103D0931003C09364
S1131E800F0318C0B901330F880B990B0E944F2020
S1131E902AE939E949E15EE30E94682120E030E063
S1131EA040E752E40E94E71E0E941C207093120334
S1131EB060931103809111039091120399231CF4F0
S1131EC09195819591098E159F0520F0F09212034A
S1131ED0E092110380911103909112034396879726
S1131EE030F484E190E0909312038093110381E035
S1131EF080930C020230110561F48093CB0310929D
S1131F00CA031092CD031092CC0382E080930B029B
S1131F100FC00330110561F481E08093CA0310926D
S1131F20CB031092CD031092CC0383E080930B0279
S1131F30809111039091120332DEDF91CF911F91B2
S1131F400F91FF90EF90DF90CF90BF90AF909F9054
S1131F508F907F906F905F904F903F902F90089557
S1131F6081E080930C0283E080930B02E6EEF2E0C2
S1131F7046E656E666EE7FE3458B568B678B708F9D
S1131F80118E128E138E148E80E090E0A0E2B1E4E4
S1131F90858F968FA78FB0A3E5ECF2E0458B568B27
S1131FA0678B708F118E128E138E148E858F968F81
S1131FB0A78FB0A380E090E0F2CD0895CF938091F5
S1131FC0C4028111ABC08091090186FD69C0809172
S1131FD0B9029091BA02059709F062C054C0809189
S1131FE0B9029091BA020697F9F48091080281111E
S1131FF05CC01AC08091B9029091BA02059731F081
S11320008091B9029091BA02069731F481E08093ED
S1132010C20287E70E94D11E8091C402882321F066
S11320208091C30281117FC080910702882399F0B7
S11320308091090186FD0FC08091090182FD0BC0CA
S113204080910802811107C08091B9029091BA026F
S1132050069709F43FC08091090182FF58C080911E
S1132060B9029091BA02069709F051C08091080212
S113207081114DC035C01092C30281E08093BF022C
S11320801092BE0250C08FE60E94D11E81E0809360
S1132090C4028093C0021092B5021092B6023EC0F0
S11320A08091090186FF9BCFBFCF8FE60E94D11E8E
S11320B081E08093C4021092C0028093BF02809397
S11320C0B4028093B5028093B6021092B2021092C9
S11320D0B30224C08BE60E94D11E10920702BBCF2C
S11320E0C1E0C093B202C093B3021092B002109246
S11320F0B1028AE60E94D11EC093C302C093C202F9
S1132100C093C402C093BE021092BF020CC080915F
S1132110B9029091BA02069731F4ADCF80910901CA
S113212086FD68CF7DCFCF9108958091B9029091BB
S1132130BA02059731F08091B9029091BA020697DC
S113214089F58091050290910602089759F557C4C4
S11321508091B402811109C08091090184FF54C4A3
S11321608091A004811150C458C48091B302882383
S1132170B9F08091B202882399F08091090184FF1B
S113218065C48091A104811161C455C41092B20246
S11321901092B3021092AF0205C010DFE1DE02C05C
S11321A00DDFDEDE8091B8028111FBC52091B902FA
S11321B03091BA02232B09F0EEC590919F0491113E
S11321C04AC49091A004911146C4E5C57894E8E608
S11321D0F0E0808181608083EBE6F0E080818061C3
S11321E080832EC12091A304211108C02091A20450
S11321F0211104C02091A104222389F1811132C04C
S113220048EC50E062E070E080E99AE10E94D20874
S113221087E090E0909306028093050286EA92E0BC
S11322200E94DE000E941C209B01772324F42227B5
S11322303327261B370B283C39410CF401C187E5B1
S113224092E00E94651D7894E8E6F0E08081816068
S11322508083EBE6F0E0808180618083F1C0882395
S113226009F47BC08091B702811138C081E090E00D
S11322709093BA028093B90210922202EDE4F3E043
S113228080E090E0A0E0B0E4858B968BA78BB08FC4
S1132290118E128E138E148E80E090E0A0EFB1E4C4
S11322A0858F968FA78FB0A387E090E09093060266
S11322B080930502EBE6F0E080818F7E8083789442
S11322C0E8E6F0E0808184608083EDE6F0E08081E0
S11322D08068808388E290E0ABDCB2C02091B902D0
S11322E03091BA022130310509F04CC52091050224
S11322F0309106022730310509F044C580919F04CE
S1132300811105C08091A004882309F43BC585E0B0
S113231090E09093BA028093B90288E60E94D11E9D
S11323200E94BD0390935C0380935B0388E090E07C
S11323309093060280930502EDE6F0E080818F77AA
S113234080830E94D8050CDE1092A7021092A60288
S113235010929F0210929E0273C02091B902309194
S1132360BA022130310509F06BC08091B70288238D
S113237009F466C091110DC08091A304811109C0B4
S11323808091A204811105C08091A104882309F4DD
S113239057C08091050290910602079709F050C03A
S11323A090C381E08093B4028093B5028093B60217
S11323B08093B7028093B8028093080241C0809151
S11323C0A3048823B1F081E08093B2028093B30226
S11323D08093B4028093B5028093B6028093B702CF
S11323E08093B8028093C2028093C4028093BE0299
S11323F031C08091A204882391F081E08093B202DD
S11324008093B3028093B4028093B5028093B602A2
S11324108093B7028093B8021092080211C0809191
S1132420A104882369F081E08093B4028093B5020B
S11324308093B6028093B7028093B8028093080217
S11324408091C402882309F4B9C48091C20288230C
S113245009F4B4C48091C002882309F489C380912B
S1132460B602811113C08091B9029091BA02059706
S1132470F1F449C37894E8E6F0E0808184608083D5
S1132480EDE6F0E080818068808311C08091B50220
S113249081110DC08091B9029091BA02059739F467
S11324A08091050290910602079709F467C3809111
S11324B0B9029091BA020297D9F4809105029091E1
S11324C006020897A9F476C381E30E94D11E1092F4
S11324D0C1020E94B61E8093AE02873649F481E0A1
S11324E08093BD021092C00280E28093AE0205C0C8
S11324F08091BD02882309F449C08091B6028823E3
S113250009F444C08091B502811145C0EDE4F3E0C3
S113251080E090E0A0E0B0E4858B968BA78BB08F31
S1132520118E128E138E148E80E090E0A0EFB1E431
S1132530858F968FA78FB0A344E650E063E070E0E8
S113254085E897E0A5DB87E090E09093060280930E
S113255005028EE992E00E94DE000E941C209B018D
S1132560772324F422273327261B370B203B3440C0
S11325700CF475C07894E8E6F0E080818460808390
S1132580EDE6F0E080818068808369C08091B502C7
S1132590882309F416C380910502909106020797D7
S11325A009F00FC38091B9029091BA02029709F021
S11325B008C30CC38091B402811144C0EDE4F3E07C
S11325C080E090E0A0E0B0E4858B968BA78BB08F81
S11325D0118E128E138E148E80E090E0A0EFB1E481
S11325E0858F968FA78FB0A344E650E062E070E039
S11325F084E398E00E94D20887E090E0909306027A
S11326008093050286EA92E00E94DE000E941C206C
S11326109B01772324F422273327261B370B2C36E0
S11326203740ECF07894E8E6F0E0808181608083C4
S1132630EBE6F0E080818061808311C08091B40278
S1132640882369F08091050290910602079739F476
S11326508091B9029091BA02059709F4D9C2809188
S1132660BF02882309F443C08091B302811143C09F
S1132670EDE4F3E080E090E0A0E0B0E4858B968B9D
S1132680A78BB08F118E128E138E148E80E090E083
S1132690A0EFB1E4858F968FA78FB0A387E090E079
S11326A0909306028093050244E650E062E070E0F5
S11326B082E098E0EDDA8EE992E00E94DE000E946A
S11326C01C209B01772324F422273327261B370B56
S11326D0203B34400CF17894E8E6F0E0808184609B
S11326E08083EDE6F0E080818068808315C080916E
S11326F0B302882389F08091B20281110DC08091C8
S1132700B9029091BA02069739F48091050290912A
S11327100602079709F49EC28091B9029091BA0209
S1132720039719F580910502909106020897E9F440
S1132730ADC282E30E94D11E1092A7021092A6029B
S113274010929F0210929E021092C1020E94B61E25
S11327508093AE02873649F481E08093BC021092E4
S1132760BE0280E28093AE0205C08091BC02882341
S113277009F448C08091B302882309F443C08091CE
S1132780B202811143C0EDE4F3E080E090E0A0E008
S1132790B0E4858B968BA78BB08F118E128E138E1F
S11327A0148E80E090E0A0EFB1E4858F968FA78F20
S11327B0B0A344E650E063E070E08EE997E068DAA5
S11327C087E090E090930602809305028EE992E000
S11327D00E94DE000E941C209B01772324F4222700
S11327E03327261B370B203B3440ECF07894E8E683
S11327F0F0E0808184608083EDE6F0E08081806891
S1132800808311C08091B202882369F0809105020F
S113281090910602079739F48091B9029091BA0217
S1132820039709F440C28091BE02882309F448C08A
S11328308091B102811149C0EDE4F3E080E090E0C1
S1132840A0E0B0E4858B968BA78BB08F118E128E8F
S1132850138E148E80E090E0A0EFB1E4858F968F04
S1132860A78FB0A346E950E062E070E08EE194E106
S11328700FDA87E090E090930602809305028EE9D8
S113288092E00E94DE000E941C209B01772324F426
S113289022273327261B370B203A3F400CF455C020
S11328A07894E8E6F0E0808184608083EDE6F0E0EF
S11328B080818068808385E692E00E94651D45C022
S11328C08091B102882309F440C08091B9029091AB
S11328D0BA02069709F06AC2809105029091060235
S11328E0079709F063C202C2809105029091060223
S11328F0089759F519C28091C10281111BC20E9427
S1132900B61E8093AE020E94501D8091AE028037A5
S113291041F482E792E00E94651D81E08093CE033A
S113292014C0843639F48FE792E00E94651D10923A
S1132930CE030BC0873649F481E08093BC02109229
S1132940BE0280E28093AE0205C08091BC0288235F
S113295009F441C08091B1028823E9F18091B00269
S113296081113EC0EDE4F3E080E090E0A0E0B0E44B
S1132970858B968BA78BB08F118E128E138E148E2F
S113298080E090E0A0EFB1E4858F968FA78FB0A38D
S113299087E090E090930602809305028EE992E02E
S11329A00E94DE000E941C209B01772324F422272E
S11329B03327261B370B203A3F400CF4FFC1789491
S11329C0E8E6F0E0808184608083EDE6F0E08081D9
S11329D08068808308958091B002882309F4EEC151
S11329E08091050290910602079709F0E7C1809152
S11329F0B9029091BA02049709F0E0C1A1C1809193
S1132A00B5028111A5CBB1CB81E08093C0021092B5
S1132A10B5021092B602D2DAC5CB85E090E090936D
S1132A20BA028093B90281E08093BB028093C4020E
S1132A308093C202B7CB86E090E09093BA02809371
S1132A40B90210920802BADA8BDAACCB8091080290
S1132A5081119CCBA2CBEDE4F3E080E090E0A0E018
S1132A60B0E4858B968BA78BB08F118E128E138E4C
S1132A70148E80E090E0A0EFB1E4858F968FA78F4D
S1132A80B0A348EC50E062E070E088EF91E10E946E
S1132A90D20887E090E0909306028093050286EACC
S1132AA092E00E94DE000E941C209B01772324F404
S1132AB022273327261B370B203331410CF086CBDA
S1132AC0BFCCEDE6F0E080818F7780831092220204
S1132AD086E090E09093BA028093B90288E090E097
S1132AE090930602809305020E94D8051092A702D3
S1132AF01092A60210929F0210929E028091A4044A
S1132B0081114FCC5CCC87E090E0909306028093D7
S1132B100502EDE4F3E080E090E0A0E0B0E4858B12
S1132B20968BA78BB08F118E128E138E148E80E02D
S1132B3090E0A0EFB1E4858F968FA78FB0A344E611
S1132B4050E062E070E084E398E0A2D88EE992E07D
S1132B500E94DE000E941C209B01772324F422277C
S1132B603327261B370B203436400CF083CC9FCC04
S1132B708091B602882309F49ACC88CCEDE6F0E083
S1132B8080818F7780830E94D80582E090E09093C3
S1132B90BA028093B9021092A7021092A602109270
S1132BA09F0210929E0288E090E090930602809328
S1132BB005027DCCD5D98091C102882309F489CC42
S1132BC083CC8091BB028111F5CC38CDEDE6F0E0E9
S1132BD080818F77808385E090E09093BA02809320
S1132BE0B9020E94D8051092A7021092A602109270
S1132BF09F0210929E0288E090E0909306028093D8
S1132C0005021092C4021092C2021092BD0227CD96
S1132C101092BB02EBE6F0E080818F7E80830E94FD
S1132C20D80586E090E09093BA028093B90288E0D8
S1132C3090E090930602809305021092A7021092EE
S1132C40A60210929F0210929E021092C402109249
S1132C50C20205CD83E090E09093BA028093B9025A
S1132C60EDE6F0E080818F7780831092A7021092C6
S1132C70A60210929F0210929E0288E090E0909328
S1132C800602809305020E94D80546CDE5EDF3E0E7
S1132C90118210821382128263D98091C102882327
S1132CA009F454CD46CD5CD9EDE6F0E080818F7710
S1132CB080830E94D8051092A7021092A602109257
S1132CC09F0210929E0286E090E09093BA02809355
S1132CD0B90288E090E09093060280930502109276
S1132CE0C4021092C2021092BC029DCDEDE6F0E047
S1132CF080818F7780830E94D8051092A70210925A
S1132D00A60210929F0210929E0288E090E0909397
S1132D100602809305021092BE0284E090E0909334
S1132D20BA028093B90211CE1BD90E94FD0581110C
S1132D30E2CDE5CD83E30E94D11E1092C102DFCD26
S1132D40EDE6F0E080818F7780830E94D8051092B1
S1132D50A7021092A60210929F0210929E0286E091
S1132D6090E09093BA028093B90288E090E0909347
S1132D700602809305021092C4021092C2021092BD
S1132D80BC0208952091B9023091BA022130310574
S1132D9009F056CBEFCA9091A404992309F422CAEE
S1132DA02FCA9091A40491115DCA1CCA8091B902E2
S1132DB09091BA02049709F0C8CD96CD08951F9258
S1132DC00F920FB60F9211240BB60F922F933F93CD
S1132DD04F935F936F937F938F939F93AF93BF931F
S1132DE0EF93FF938091B802811106C081E0809334
S1132DF0B80280939E0422C08091B402811108C05D
S1132E0081E08093B40280939E040E94D80516C08A
S1132E108091AF02811112C081E08093AF020E94C1
S1132E20D805EBE6F0E080818F7E80831092A702C4
S1132E301092A60210929F0210929E02FF91EF91AF
S1132E40BF91AF919F918F917F916F915F914F91BE
S1132E503F912F910F900BBE0F900FBE0F901F90BC
S1132E6018951F920F920FB60F9211240BB60F9262
S1132E702F933F934F935F936F937F938F939F937E
S1132E80AF93BF93EF93FF938091B702811106C074
S1132E900E94D80581E08093B70241C08091B602B8
S1132EA0811108C081E08093C1028093B6020E9420
S1132EB0D80535C08091B502811106C081E08093A8
S1132EC0B5020E94D8052BC08091B302811108C0BD
S1132ED081E08093C1028093B3020E94D8051FC091
S1132EE08091B202811106C081E08093B2020E94F7
S1132EF0D80515C08091B102811108C081E080938A
S1132F00C1028093B1020E94D80509C08091B00229
S1132F10811105C081E08093B0020E94D805FF9121
S1132F20EF91BF91AF919F918F917F916F915F913D
S1132F304F913F912F910F900BBE0F900FBE0F90AA
S1132F401F901895AAE0B1E08C918F7B8C938C91A3
S1132F508F7E8C93EBE0F1E08081806480838081BC
S1132F60806180838C918B7F8C9380818B7F808325
S1132F70E1E0F1E08081877F80836B98E2E0F1E01B
S1132F80808188608083739AE7E0F1E080818160CA
S1132F908083E8E0F1E080818E7F808387E690E0A3
S1132FA066D589E190E03AD689E190E0C6D60E94E0
S1132FB02E057894BAD80E940F08FCCF87E194E0DC
S1132FC03DD0EFE8F3E01086118681E0808BEEE6D9
S1132FD0F3E010861186808BEDE4F3E01086118611
S1132FE0808BECE2F3E010861186808BEBE0F3E05B
S1132FF010861186808BE6EEF2E010861186808BB7
S1133000E5ECF2E010861186808B1092A7021092F4
S1133010A60286EA92E00E94CB0086EA92E00E9431
S1133020D60010929F0210929E028EE992E00E94B6
S1133030CB008EE992E00C94D6000895FC0114AE06
S113304015AE16AE17AEDC01A05CBF4F1D921D92EB
S11330501D921C92139714961D921D921D921C9200
S11330601397D4961C92D0971D921D921D921C9278
S1133070139714961D921D921D921C9213971496E9
S11330801D921D921D921C92139710AA11AA12AAA6
S113309013AA14AA15AA16AA17AA10AE11AE12AE34
S11330A013AE94961D921D921D921C92139718971D
S11330B04FE35EE16AEF7BE34D935D936D937C9305
S11330C01397E059FF4F80E49AEDAFE7B8E38083AC
S11330D09183A283B38308952FEF82E597E0215073
S11330E080409040E1F700C0000080EDCED38BE635
S11330F039D480E037D4F2D380EDC7D389E132D418
S113310089E130D4EBD380EDC0D38AE12BD480E0C5
S113311029D4E4D380EDB9D38BE124D480E022D444
S1133120DDD380EDB2D388E31DD481E01BD4D6D3A4
S113313080EDABD38CE116D480E014D4CFC30895D2
S1133140CF93C62F80EDD3D38C2F0CD481EDC4D371
S1133150CF910895AF92BF92CF92DF92EF92FF92F8
S11331600F931F93CF93DF938C01EB016BE3CE019D
S1133170E7DF0AD4A82E08D4B82E06D4C82E04D467
S1133180E82E02D4D82E0BD4F82E6B2D70E07A29B9
S1133190072E000C880B990B82D7FE01E85BFF4FCA
S11331A0208131814281538111D6688379838A8356
S11331B09B836E2D70E07C29072E000C880B990BE5
S11331C06ED7FE01E45BFF4F208131814281538140
S11331D0FDD56C837D838E839F836F2D70E07D2965
S11331E0072E000C880B990B5AD7688779878A8732
S11331F09B8774D38CE0FE01D80101900D928A95CF
S1133200E1F7C801DF91CF911F910F91FF90EF90EB
S1133210DF90CF90BF90AF900895AF92BF92CF92BE
S1133220DF92EF92FF920F931F93CF93DF93CDB76B
S1133230DEB72C970FB6F894DEBF0FBECDBF5C018E
S11332408B01CE01019686DFF801E059FF4FC08063
S1133250D180E280F380A7019601F8016081718139
S1133260828193810E946821F801608F718F828F1F
S1133270938FA701960164817581868197810E944D
S11332806821F801648F758F868F978FA701960147
S113329060857185828593850E946821F80160A309
S11332A071A382A393A38CE07896D50101900D922B
S11332B08A95E1F7C5012C960FB6F894DEBF0FBED0
S11332C0CDBFDF91CF911F910F91FF90EF90DF90D1
S11332D0CF90BF90AF900895FF920F931F93CF9319
S11332E0DF938C01EB0163E4CE012ADF4DD3F82E8A
S11332F04BD36F2D70E0762F6627682B072E000CBA
S1133300880B990BCCD66C877D878E879F873CD39F
S1133310F82E3AD36F2D70E0762F6627682B072E90
S1133320000C880B990BBBD6688B798B8A8B9B8B93
S11333302BD3F82E34D36F2D70E0762F6627682BAD
S1133340072E000C880B990BAAD66C8B7D8B8E8B69
S11333509F8BC4D28CE0FE013C96D80101900D9263
S11333608A95E1F7C801DF91CF911F910F91FF90EA
S11333700895CF92DF92EF92FF921F93CF93DF9342
S1133380EC01162F662309F43BC0FC01E858FF4FFB
S11333908081811103C062E3CE0151D0612F70E0BE
S11333A080E090E07CD66B017C019B01AC01FE01C6
S11333B0EC5AFF4F608171818281938189D768AB18
S11333C079AB8AAB9BABA7019601FE01E85AFF4F8C
S11333D060817181828193817BD76CAB7DAB8EAB35
S11333E09FABA7019601FE01E45AFF4F60817181F2
S11333F0828193816DD768AF79AF8AAF9BAF0CC0E0
S113340018AA19AA1AAA1BAA1CAA1DAA1EAA1FAA8C
S113341018AE19AE1AAE1BAECC58DF4F612F70E058
S113342080E090E03AD6688379838A839B83DF9136
S1133430CF911F91FF90EF90DF90CF9008952F923E
S11334403F924F925F926F927F928F929F92AF9230
S1133450BF92CF92DF92EF92FF920F931F93CF937D
S1133460DF93CDB7DEB7A4970FB6F894DEBF0FBED7
S1133470CDBF1C01062FFC01E858FF4F81E080837B
S1133480662309F487C010E0198E1A8E1B8E1C8ED9
S11334901D8A1E8A1F8A188E1D861E861F86188AFC
S11334A019A21AA21BA21CA21D8E1E8E1F8E18A268
S11334B0198A1A8A1B8A1C8AB101CE0101960CDF73
S11334C0F1014484558466847784A3019201698957
S11334D07A898B899C897BD4698B7A8B8B8B9C8B27
S11334E0F10180889188A288B388A50194016D8D2B
S11334F07E8D8F8D98A16BD46D8F7E8F8F8F98A3C7
S1133500F101C488D588E688F788A701960169A1E6
S11335107AA18BA19CA15BD469A37AA38BA39CA35E
S1133520A3019201C301B201D3D69B01AC016D8505
S11335307E858F8598894BD46D877E878F87988BFE
S1133540A5019401C501B401C3D69B01AC016D89E9
S11335507E898F89988D3BD46D8B7E8B8F8B988FD2
S1133560A7019601C701B601B3D69B01AC01698DD1
S11335707A8D8B8D9C8D2BD4698F7A8F8B8F9C8FBA
S11335808FE19EE40197F1F700C000001F5F011373
S113359093CF18C0198E1A8E1B8E1C8E1D8A1E8AFC
S11335A01F8A188E1D861E861F86188A19A21AA2C3
S11335B01BA21CA21D8E1E8E1F8E18A2198A1A8A87
S11335C01B8A1C8A602F70E080E090E068D54B0174
S11335D05C019B01AC0169897A898B899C89C4D47B
S11335E06B017C01F10164AF75AF86AF97AFA501A4
S11335F094016D8D7E8D8F8D98A1B6D42B013C01E5
S1133600F101E05CFF4F6083718382839383A501A2
S1133610940169A17AA18BA19CA1A6D44B015C0160
S1133620F101EC5BFF4F608371838283938320E01D
S113363030E048E452E46D857E858F85988994D482
S1133640698B7A8B8B8B9C8B20E030E048E452E4CE
S11336506D857E858F85988987D46D877E878F87D2
S1133660988BA7019601C701B60132D69B01AC0124
S11336706D857E858F859889A9D397D6F101EC5AFB
S1133680FF4F608371838283938320E030E048E4BA
S113369052E46D897E898F89988D66D46B017C0193
S11336A0A3019201C301B20113D69B01AC01C7016E
S11336B0B6018CD37AD6F101E85AFF4F6083718347
S11336C08283938320E030E048E452E4698D7A8D6C
S11336D08B8D9C8D49D46B017C01A5019401C5019E
S11336E0B401F6D59B01AC01C701B6016FD35DD619
S11336F0F101E45AFF4F6083718382839383789648
S1133700C080D180E280F38020E030E0A901C701CD
S1133710B601D3D518162CF4C701B60192D4C10151
S113372028DEA4960FB6F894DEBF0FBECDBFDF919E
S1133730CF911F910F91FF90EF90DF90CF90BF90AA
S1133740AF909F908F907F906F905F904F903F903D
S11337502F900895EF92FF920F931F93CF93DF93CF
S1133760CDB7DEB72C970FB6F894DEBF0FBECDBF32
S11337708C01BC01CE010196AFDD780180E6E80E34
S1133780F11C20E030E043E053E4F80164857585E2
S113379086859785E9D3F701608371838283938358
S11337A07801F4E6EF0EF11C20E030E043E053E44E
S11337B0F8016089718982899389D6D3F70160837E
S11337C07183828393837801F8E6EF0EF11C20E085
S11337D030E043E053E4F801648975898689978968
S11337E0C3D3F70160837183828393832C960FB6CE
S11337F0F894DEBF0FBECDBFDF91CF911F910F9123
S1133800FF90EF900895805A9F4FFC016081718171
S11338108281938108958C599F4FFC01608171814D
S113382082819381089588599F4FFC016081718141
S11338308281938108957899FECF799904C081E0BB
S11338408093A40408957A9904C081E08093A3042A
S113385008957B9904C081E08093A20408957C9923
S113386004C081E08093A10408957D9904C081E09F
S11338708093A004089581E080939F04089510929A
S1133880B90088E48093B800089594EA9093BC004A
S1133890ECEBF0E090819923ECF79091B900987FDC
S11338A0983011F09031A1F48093BB0084E88093A8
S11338B0BC00ECEBF0E080818823ECF79091B90038
S11338C0987F983139F081E0903429F480E00895AC
S11338D081E0089580E00895D8CF089584E9809325
S11338E0BC00ECEBF0E0808184FDFDCF0895BF9235
S11338F0CF92DF92EF92FF920F931F93CF93DF93B8
S1133900B82ECCEBD0E009EB10E00F2EF4EADF2E5A
S1133910F02D0F2EFBEBEF2EF12CF02D0F2EF4E8F3
S1133920CF2EF02DD88288818823ECF7F80180818E
S1133930887F8830B9F7F701B082C88288818823EC
S1133940ECF7F8018081887F883111F0C7DFEACF76
S1133950DF91CF911F910F91FF90EF90DF90CF9067
S1133960BF9008958093BB0084E88093BC00ECEB87
S1133970F0E080818823ECF79091B900987F81E092
S1133980983209F480E0089584EC8093BC00ECEB59
S1133990F0E080818823ECF78091BB00089584E8EF
S11339A08093BC00ECEBF0E080818823ECF78091FD
S11339B0BB0008951F920F920FB60F9211240BB6FD
S11339C00F922F938F939F93EF93FF938091C00057
S11339D02091C6008871E0915505EF5FEF719091D9
S11339E05405E91739F0E0935505F0E0E85AFA4F29
S11339F0208301C082E080935305FF91EF919F9152
S1133A008F912F910F900BBE0F900FBE0F901F90B0
S1133A1018951F920F920FB60F9211240BB60F92A6
S1133A208F939F93EF93FF93909157058091560541
S1133A30981769F0E0915605EF5FEF71E093560532
S1133A40F0E0E858FA4F80818093C60005C0E1ECAD
S1133A50F0E080818F7D8083FF91EF919F918F9122
S1133A600F900BBE0F900FBE0F901F9018951092E1
S1133A705705109256051092550510925405992336
S1133A8024F422E02093C0009F779093C500809394
S1133A90C40088E98093C10086E08093C200089541
S1133AA0209157052F5F2F71909156052917E1F347
S1133AB0E22FF0E0E858FA4F808320935705E1ECB9
S1133AC0F0E08081806280830895CF93DF93EC01DE
S1133AD08881882329F02196E3DF89918111FCCF25
S1133AE0DF91CF9108951F920F920FB60F92112478
S1133AF00BB60F922F938F939F93EF93FF93809125
S1133B00C8002091CE008871E0911005EF5FEF713D
S1133B1090910F05E91739F0E0931005F0E0ED5EA0
S1133B20FA4F208301C082E080930E05FF91EF914C
S1133B309F918F912F910F900BBE0F900FBE0F90FE
S1133B401F9018951F920F920FB60F9211240BB667
S1133B500F928F939F93EF93FF939091120580910F
S1133B601105981769F0E0911105EF5FEF71E0938B
S1133B701105F0E0ED5CFA4F80818093CE0005C022
S1133B80E9ECF0E080818F7D8083FF91EF919F913C
S1133B908F910F900BBE0F900FBE0F901F90189532
S1133BA01F920F920FB60F9211248F938091D6001B
S1133BB0809398058F910F900FBE0F901F901895CA
S1133BC01F920F920FB60F9211240BB60F928F9380
S1133BD09F93EF93FF939091ED048091EC049817D9
S1133BE069F0E091EC04EF5FEF71E093EC04F0E036
S1133BF0E251FB4F80818093D60005C0E1EDF0E0F7
S1133C0080818F7D8083FF91EF919F918F910F90A1
S1133C100BBE0F900FBE0F901F9018951092ED04DD
S1133C201092EC041092EB041092EA04992324F409
S1133C3022E02093D0009F779093D5008093D40006
S1133C4088E98093D10086E08093D2000895809122
S1133C50980590E008952091ED042F5F2F719091C5
S1133C60EC042917E1F3E22FF0E0E251FB4F8083EB
S1133C702093ED04E1EDF0E080818062808308957B
S1133C801F920F920FB60F9211240BB60F922F931F
S1133C908F939F93EF93FF9380913001209136018E
S1133CA08871E091A704EF5FEF719091A604E91782
S1133CB039F0E093A704F0E0E655FB4F208301C000
S1133CC082E08093A504FF91EF919F918F912F91B2
S1133CD00F900BBE0F900FBE0F901F9018951F9260
S1133CE00F920FB60F9211240BB60F928F939F93DE
S1133CF0EF93FF939091A9048091A804981769F019
S1133D00E091A804EF5FEF71E093A804F0E0E653BC
S1133D10FB4F80818093360105C0E1E3F1E08081AF
S1133D208F7D8083FF91EF919F918F910F900BBEB8
S1133D300F900FBE0F901F9018951092A904109227
S1133D40A8041092A7041092A604992324F426E050
S1133D50209330019F77909335018093340188E953
S1133D608093310186E08093320108959091A704F5
S1133D708091A604981791F0E091A604EF5FEF718B
S1133D80E093A604F0E0E655FB4F20818091A50462
S1133D9090E0982F8827820F911D089580E091E08C
S1133DA008952091A9042F5F2F719091A8042917D9
S1133DB0E1F3E22FF0E0E653FB4F80832093A90464
S1133DC0E1E3F1E080818062808308955058BB274D
S1133DD0AA270ED027C2F0D130F0F5D120F031F46B
S1133DE09F3F11F41EF4C0C10EF4E095E7FBB6C189
S1133DF0E92F3AD280F3BA1762077307840795074D
S1133E0018F071F49EF552C20EF4E0950B2EBA2F01
S1133E10A02D0B01B90190010C01CA01A0011124CC
S1133E20FF27591B99F0593F50F4503E68F11A1678
S1133E30F040A22F232F342F4427585FF3CF469509
S1133E4037952795A795F0405395C9F77EF41F162B
S1133E50BA0B620B730B840BBAF09150A1F0FF0FF5
S1133E60BB1F661F771F881FC2F70EC0BA0F621FE1
S1133E70731F841F48F4879577956795B795F795D1
S1133E809E3F08F0B3CF9395880F08F09927EE0F63
S1133E9097958795089590D158F080E891E009F4BA
S1133EA09EEF91D128F040E851E059F45EEF09C04B
S1133EB05BC1FCC1E92FE078D7D168F3092E052A4C
S1133EC0C1F3261737074807590738F00E2E07F8AD
S1133ED0E02569F0E025E0640AC0EF6307F8009488
S1133EE007FADB01B9019D01DC01CA01AD01EF93C1
S1133EF04AD098D10AD05F91552331F02BED3FE0A1
S1133F0049E450FD49EC63CF0895DF93DD27B92FD1
S1133F10BF7740E85FE31616170648075B0710F4FF
S1133F20D92FCFD19F938F937F936F937CD2E4EE5D
S1133F30F0E01DD177D12F913F914F915F91D4D172
S1133F40DD2349F09058A2EA2AED3FE049EC5FE313
S1133F50D0785D274DDFDF9165C1DCD008F481E0C6
S1133F60089539D1E3956FC10CD05CC12CD140F0D8
S1133F7023D130F021F45F3F19F0F0C0511197C103
S1133F80F3C072D198F39923C9F35523B1F3951B68
S1133F90550BBB27AA2762177307840738F09F5F66
S1133FA05F4F220F331F441FAA1FA9F333D00E2ED5
S1133FB03AF0E0E830D091505040E695001CCAF742
S1133FC029D0FE2F27D0660F771F881FBB1F261707
S1133FD037074807AB07B0E809F0BB0B802DBF01DA
S1133FE0FF2793585F4F2AF09E3F510568F0B6C0F3
S1133FF05EC15F3FECF3983EDCF386957795679559
S1134000B795F7959F5FC9F7880F911D969587958A
S113401097F90895E1E0660F771F881FBB1F6217A9
S113402073078407BA0720F0621B730B840BBA0B67
S1134030EE1F88F7E095089504D06894B11137C154
S113404008951AD188F09F5790F0B92F9927B75146
S1134050A0F0D1F0660F771F881F991F1AF0BA9548
S1134060C9F712C0B13081F021D1B1E008951EC169
S1134070672F782F8827B85F39F0B93FCCF386953E
S113408077956795B395D9F73EF49095809570959B
S113409061957F4F8F4F9F4F0895E89409C097FB18
S11340A03EF490958095709561957F4F8F4F9F4F0B
S11340B09923A9F0F92F96E9BB279395F69587954F
S11340C077956795B795F111F8CFFAF4BB0F11F412
S11340D060FF1BC06F5F7F4F8F4F9F4F16C08823B9
S11340E011F096E911C0772321F09EE8872F762FEF
S11340F005C0662371F096E8862F70E060E02AF030
S11341009A95660F771F881FDAF7880F969587951B
S113411097F90895990F0008550FAA0BE0E8FEEFF0
S113412016161706E807F907C0F012161306E40777
S1134130F50798F0621B730B840B950B39F40A2670
S113414061F0232B242B252B21F408950A2609F44E
S1134150A140A6958FEF811D811D089597F99F6752
S113416080E870E060E008959FEF80EC0895DF93AD
S1134170CF931F930F93FF92EF92DF927B018C01F9
S1134180689405C0DA2EEF01AFD0FE01E894A59142
S11341902591359145915591AEF3EF0129DEFE014C
S11341A09701A801DA9479F7DF90EF90FF900F91CF
S11341B01F91CF91DF91089500240A9416161706D3
S11341C018060906089500240A9412161306140604
S11341D005060895C9CF50D0E8F3E894E0E0BB2782
S11341E09F57F0F02AED3FE049EC06C0EE0FBB0FFD
S11341F0661F771F881F28F0B23A62077307840787
S113420028F0B25A620B730B840BE3959A9572F7FC
S1134210803830F49A95BB0F661F771F881FD2F73A
S1134220904806C1092E0394000C11F4882352F01F
S1134230BB0F40F4BF2B11F460FF04C06F5F7F4FCE
S11342408F4F9F4F0895EF93E0FF06C0A2EA2AED37
S11342503FE049EC5FEBCCDDE5DF0F90039401FC1C
S11342609058E1E1F1E0F7C057FD9058440F551F15
S113427059F05F3F71F04795880F97FB991F61F0E4
S11342809F3F79F087950895121613061406551F5B
S1134290F2CF4695F1DF08C0161617061806991FC7
S11342A0F1CF86957105610508940895E894BB27BC
S11342B066277727CB0197F908952CDF08F48FEF51
S11342C008959B01AC0160E070E080E89FE34CCE70
S11342D00BD0A8CF71DF28F076DF18F0952309F012
S11342E03DCF42CF1124E3CFBFDFA0F3959FD1F39D
S11342F0950F50E0551F629FF001729FBB27F00D90
S1134300B11D639FAA27F00DB11DAA1F649F6627E4
S1134310B00DA11D661F829F2227B00DA11D621F33
S1134320739FB00DA11D621F839FA00D611D221FED
S1134330749F3327A00D611D231F849F600D211DD1
S1134340822F762F6A2F11249F5750408AF0E1F074
S113435088234AF0EE0FFF1FBB1F661F771F881FBD
S113436091505040A9F79E3F510570F0F7CE9FCF72
S11343705F3FECF3983EDCF3869577956795B795A8
S1134380F795E7959F5FC1F7FE2B880F911D9695D2
S1134390879597F908959F931EDF0F9007FCEE5FB2
S11343A052CF11F40EF4E0CE41C066DFD0F399236E
S11343B0D9F3CEF39F57550B87FF46D00024A0E6D0
S11343C040EA900180585695979528F4805C660FD2
S11343D0771F881F20F026173707480730F4621B21
S11343E0730B840B202931294A2BA6951794079423
S11343F0202531254A2758F7660F771F881F20F09C
S113440026173707480730F4620B730B840B200D13
S1134410311D411DA09581F7B901842F9158880F52
S11344209695879508959B01AC0152CF9F3F31F03B
S1134430915020F4879577956795B795880F911DCE
S11344409695879597F9089591505040660F771F78
S1134450881FD2F708959F938F937F936F93FF9351
S1134460EF939B01AC0134DFEF91FF9180DE2F913C
S11344703F914F915F912CCF97FB072E16F4009438
S113448006D077FD08D00BD007FC05D03EF49095FC
S113449081959F4F0895709561957F4F0895AA1B4C
S11344A0BB1B51E107C0AA1FBB1FA617B70710F01B
S11344B0A61BB70B881F991F5A95A9F7809590954D
S11344C0BC01CD010895EE0FFF1F881F8BBF07901D
S10D44D0F691E02D1994F894FFCF43
S11344DA0101010101080001012D230707FFFF0162
S11344EA010101FFFF01FFFF01FF0101FF000000BD
S11344FA000101000080BF0000803F0000803F00EF
S113450A0080BF000080BF0000803F0000803F00A1
S113451A0080BF0000803F0000803F0000803F0011
S113452A00803F01010101696E74657272757074CD
S113453A206F6E0900696E74657272757074206FEB
S113454A6E00707265737320747275650D0A00705B
S113455A726573732066616C7365200D0A000A0024
S111456A14001E00280032003C0046005000E1
S9030000FC
